{
  "_format": "hh-sol-artifact-1",
  "contractName": "TwelveKnights",
  "sourceName": "contracts/TwelveKnights.sol",
  "abi": [
    {
      "inputs": [],
      "stateMutability": "nonpayable",
      "type": "constructor"
    },
    {
      "inputs": [],
      "name": "ApprovalCallerNotOwnerNorApproved",
      "type": "error"
    },
    {
      "inputs": [],
      "name": "ApprovalQueryForNonexistentToken",
      "type": "error"
    },
    {
      "inputs": [],
      "name": "BalanceQueryForZeroAddress",
      "type": "error"
    },
    {
      "inputs": [],
      "name": "MintERC2309QuantityExceedsLimit",
      "type": "error"
    },
    {
      "inputs": [],
      "name": "MintToZeroAddress",
      "type": "error"
    },
    {
      "inputs": [],
      "name": "MintZeroQuantity",
      "type": "error"
    },
    {
      "inputs": [],
      "name": "OwnerQueryForNonexistentToken",
      "type": "error"
    },
    {
      "inputs": [],
      "name": "OwnershipNotInitializedForExtraData",
      "type": "error"
    },
    {
      "inputs": [],
      "name": "TransferCallerNotOwnerNorApproved",
      "type": "error"
    },
    {
      "inputs": [],
      "name": "TransferFromIncorrectOwner",
      "type": "error"
    },
    {
      "inputs": [],
      "name": "TransferToNonERC721ReceiverImplementer",
      "type": "error"
    },
    {
      "inputs": [],
      "name": "TransferToZeroAddress",
      "type": "error"
    },
    {
      "inputs": [],
      "name": "URIQueryForNonexistentToken",
      "type": "error"
    },
    {
      "anonymous": false,
      "inputs": [
        {
          "indexed": true,
          "internalType": "address",
          "name": "owner",
          "type": "address"
        },
        {
          "indexed": true,
          "internalType": "address",
          "name": "approved",
          "type": "address"
        },
        {
          "indexed": true,
          "internalType": "uint256",
          "name": "tokenId",
          "type": "uint256"
        }
      ],
      "name": "Approval",
      "type": "event"
    },
    {
      "anonymous": false,
      "inputs": [
        {
          "indexed": true,
          "internalType": "address",
          "name": "owner",
          "type": "address"
        },
        {
          "indexed": true,
          "internalType": "address",
          "name": "operator",
          "type": "address"
        },
        {
          "indexed": false,
          "internalType": "bool",
          "name": "approved",
          "type": "bool"
        }
      ],
      "name": "ApprovalForAll",
      "type": "event"
    },
    {
      "anonymous": false,
      "inputs": [
        {
          "indexed": true,
          "internalType": "uint256",
          "name": "fromTokenId",
          "type": "uint256"
        },
        {
          "indexed": false,
          "internalType": "uint256",
          "name": "toTokenId",
          "type": "uint256"
        },
        {
          "indexed": true,
          "internalType": "address",
          "name": "from",
          "type": "address"
        },
        {
          "indexed": true,
          "internalType": "address",
          "name": "to",
          "type": "address"
        }
      ],
      "name": "ConsecutiveTransfer",
      "type": "event"
    },
    {
      "anonymous": false,
      "inputs": [
        {
          "indexed": true,
          "internalType": "address",
          "name": "previousOwner",
          "type": "address"
        },
        {
          "indexed": true,
          "internalType": "address",
          "name": "newOwner",
          "type": "address"
        }
      ],
      "name": "OwnershipTransferred",
      "type": "event"
    },
    {
      "anonymous": false,
      "inputs": [
        {
          "indexed": true,
          "internalType": "address",
          "name": "from",
          "type": "address"
        },
        {
          "indexed": true,
          "internalType": "address",
          "name": "to",
          "type": "address"
        },
        {
          "indexed": true,
          "internalType": "uint256",
          "name": "tokenId",
          "type": "uint256"
        }
      ],
      "name": "Transfer",
      "type": "event"
    },
    {
      "inputs": [],
      "name": "MAX_PUBLIC_MINT",
      "outputs": [
        {
          "internalType": "uint256",
          "name": "",
          "type": "uint256"
        }
      ],
      "stateMutability": "view",
      "type": "function"
    },
    {
      "inputs": [],
      "name": "MAX_WHITELIST_MINT",
      "outputs": [
        {
          "internalType": "uint256",
          "name": "",
          "type": "uint256"
        }
      ],
      "stateMutability": "view",
      "type": "function"
    },
    {
      "inputs": [],
      "name": "PUBLIC_SALE_PRICE",
      "outputs": [
        {
          "internalType": "uint256",
          "name": "",
          "type": "uint256"
        }
      ],
      "stateMutability": "view",
      "type": "function"
    },
    {
      "inputs": [],
      "name": "WHITELIST_SALE_PRICE",
      "outputs": [
        {
          "internalType": "uint256",
          "name": "",
          "type": "uint256"
        }
      ],
      "stateMutability": "view",
      "type": "function"
    },
    {
      "inputs": [
        {
          "internalType": "address",
          "name": "to",
          "type": "address"
        },
        {
          "internalType": "uint256",
          "name": "tokenId",
          "type": "uint256"
        }
      ],
      "name": "approve",
      "outputs": [],
      "stateMutability": "payable",
      "type": "function"
    },
    {
      "inputs": [
        {
          "internalType": "address",
          "name": "owner",
          "type": "address"
        }
      ],
      "name": "balanceOf",
      "outputs": [
        {
          "internalType": "uint256",
          "name": "",
          "type": "uint256"
        }
      ],
      "stateMutability": "view",
      "type": "function"
    },
    {
      "inputs": [],
      "name": "baseExtension",
      "outputs": [
        {
          "internalType": "string",
          "name": "",
          "type": "string"
        }
      ],
      "stateMutability": "view",
      "type": "function"
    },
    {
      "inputs": [],
      "name": "baseURI",
      "outputs": [
        {
          "internalType": "string",
          "name": "",
          "type": "string"
        }
      ],
      "stateMutability": "view",
      "type": "function"
    },
    {
      "inputs": [
        {
          "internalType": "uint256",
          "name": "tokenId",
          "type": "uint256"
        }
      ],
      "name": "getApproved",
      "outputs": [
        {
          "internalType": "address",
          "name": "",
          "type": "address"
        }
      ],
      "stateMutability": "view",
      "type": "function"
    },
    {
      "inputs": [
        {
          "internalType": "uint256",
          "name": "_mintAmount",
          "type": "uint256"
        },
        {
          "internalType": "address",
          "name": "destination",
          "type": "address"
        }
      ],
      "name": "gift",
      "outputs": [],
      "stateMutability": "nonpayable",
      "type": "function"
    },
    {
      "inputs": [
        {
          "internalType": "address",
          "name": "owner",
          "type": "address"
        },
        {
          "internalType": "address",
          "name": "operator",
          "type": "address"
        }
      ],
      "name": "isApprovedForAll",
      "outputs": [
        {
          "internalType": "bool",
          "name": "",
          "type": "bool"
        }
      ],
      "stateMutability": "view",
      "type": "function"
    },
    {
      "inputs": [],
      "name": "maxSupply",
      "outputs": [
        {
          "internalType": "uint256",
          "name": "",
          "type": "uint256"
        }
      ],
      "stateMutability": "view",
      "type": "function"
    },
    {
      "inputs": [],
      "name": "merkleRoot",
      "outputs": [
        {
          "internalType": "bytes32",
          "name": "",
          "type": "bytes32"
        }
      ],
      "stateMutability": "view",
      "type": "function"
    },
    {
      "inputs": [],
      "name": "name",
      "outputs": [
        {
          "internalType": "string",
          "name": "",
          "type": "string"
        }
      ],
      "stateMutability": "view",
      "type": "function"
    },
    {
      "inputs": [],
      "name": "notRevealedUri",
      "outputs": [
        {
          "internalType": "string",
          "name": "",
          "type": "string"
        }
      ],
      "stateMutability": "view",
      "type": "function"
    },
    {
      "inputs": [
        {
          "internalType": "address",
          "name": "owner",
          "type": "address"
        }
      ],
      "name": "numberMinted",
      "outputs": [
        {
          "internalType": "uint256",
          "name": "",
          "type": "uint256"
        }
      ],
      "stateMutability": "view",
      "type": "function"
    },
    {
      "inputs": [],
      "name": "owner",
      "outputs": [
        {
          "internalType": "address",
          "name": "",
          "type": "address"
        }
      ],
      "stateMutability": "view",
      "type": "function"
    },
    {
      "inputs": [
        {
          "internalType": "uint256",
          "name": "tokenId",
          "type": "uint256"
        }
      ],
      "name": "ownerOf",
      "outputs": [
        {
          "internalType": "address",
          "name": "",
          "type": "address"
        }
      ],
      "stateMutability": "view",
      "type": "function"
    },
    {
      "inputs": [
        {
          "internalType": "bool",
          "name": "_state",
          "type": "bool"
        }
      ],
      "name": "pause",
      "outputs": [],
      "stateMutability": "nonpayable",
      "type": "function"
    },
    {
      "inputs": [],
      "name": "paused",
      "outputs": [
        {
          "internalType": "bool",
          "name": "",
          "type": "bool"
        }
      ],
      "stateMutability": "view",
      "type": "function"
    },
    {
      "inputs": [],
      "name": "publicSale",
      "outputs": [
        {
          "internalType": "bool",
          "name": "",
          "type": "bool"
        }
      ],
      "stateMutability": "view",
      "type": "function"
    },
    {
      "inputs": [
        {
          "internalType": "uint256",
          "name": "tokens",
          "type": "uint256"
        }
      ],
      "name": "publicSaleMint",
      "outputs": [],
      "stateMutability": "payable",
      "type": "function"
    },
    {
      "inputs": [],
      "name": "renounceOwnership",
      "outputs": [],
      "stateMutability": "nonpayable",
      "type": "function"
    },
    {
      "inputs": [
        {
          "internalType": "bool",
          "name": "_state",
          "type": "bool"
        }
      ],
      "name": "reveal",
      "outputs": [],
      "stateMutability": "nonpayable",
      "type": "function"
    },
    {
      "inputs": [],
      "name": "revealed",
      "outputs": [
        {
          "internalType": "bool",
          "name": "",
          "type": "bool"
        }
      ],
      "stateMutability": "view",
      "type": "function"
    },
    {
      "inputs": [
        {
          "internalType": "address",
          "name": "from",
          "type": "address"
        },
        {
          "internalType": "address",
          "name": "to",
          "type": "address"
        },
        {
          "internalType": "uint256",
          "name": "tokenId",
          "type": "uint256"
        }
      ],
      "name": "safeTransferFrom",
      "outputs": [],
      "stateMutability": "payable",
      "type": "function"
    },
    {
      "inputs": [
        {
          "internalType": "address",
          "name": "from",
          "type": "address"
        },
        {
          "internalType": "address",
          "name": "to",
          "type": "address"
        },
        {
          "internalType": "uint256",
          "name": "tokenId",
          "type": "uint256"
        },
        {
          "internalType": "bytes",
          "name": "_data",
          "type": "bytes"
        }
      ],
      "name": "safeTransferFrom",
      "outputs": [],
      "stateMutability": "payable",
      "type": "function"
    },
    {
      "inputs": [
        {
          "internalType": "address",
          "name": "operator",
          "type": "address"
        },
        {
          "internalType": "bool",
          "name": "approved",
          "type": "bool"
        }
      ],
      "name": "setApprovalForAll",
      "outputs": [],
      "stateMutability": "nonpayable",
      "type": "function"
    },
    {
      "inputs": [
        {
          "internalType": "string",
          "name": "_newBaseExtension",
          "type": "string"
        }
      ],
      "name": "setBaseExtension",
      "outputs": [],
      "stateMutability": "nonpayable",
      "type": "function"
    },
    {
      "inputs": [
        {
          "internalType": "string",
          "name": "_newBaseURI",
          "type": "string"
        }
      ],
      "name": "setBaseURI",
      "outputs": [],
      "stateMutability": "nonpayable",
      "type": "function"
    },
    {
      "inputs": [
        {
          "internalType": "uint256",
          "name": "_limit",
          "type": "uint256"
        }
      ],
      "name": "setMAX_PUBLIC_MINT",
      "outputs": [],
      "stateMutability": "nonpayable",
      "type": "function"
    },
    {
      "inputs": [
        {
          "internalType": "uint256",
          "name": "_limit",
          "type": "uint256"
        }
      ],
      "name": "setMAX_WHITELIST_MINT",
      "outputs": [],
      "stateMutability": "nonpayable",
      "type": "function"
    },
    {
      "inputs": [
        {
          "internalType": "uint256",
          "name": "_newsupply",
          "type": "uint256"
        }
      ],
      "name": "setMaxsupply",
      "outputs": [],
      "stateMutability": "nonpayable",
      "type": "function"
    },
    {
      "inputs": [
        {
          "internalType": "bytes32",
          "name": "_merkleRoot",
          "type": "bytes32"
        }
      ],
      "name": "setMerkleRoot",
      "outputs": [],
      "stateMutability": "nonpayable",
      "type": "function"
    },
    {
      "inputs": [
        {
          "internalType": "string",
          "name": "_notRevealedURI",
          "type": "string"
        }
      ],
      "name": "setNotRevealedURI",
      "outputs": [],
      "stateMutability": "nonpayable",
      "type": "function"
    },
    {
      "inputs": [
        {
          "internalType": "uint256",
          "name": "_newCost",
          "type": "uint256"
        }
      ],
      "name": "setPUBLIC_SALE_PRICE",
      "outputs": [],
      "stateMutability": "nonpayable",
      "type": "function"
    },
    {
      "inputs": [
        {
          "internalType": "uint256",
          "name": "_newCost",
          "type": "uint256"
        }
      ],
      "name": "setWHITELIST_SALE_PRICE",
      "outputs": [],
      "stateMutability": "nonpayable",
      "type": "function"
    },
    {
      "inputs": [
        {
          "internalType": "bytes4",
          "name": "interfaceId",
          "type": "bytes4"
        }
      ],
      "name": "supportsInterface",
      "outputs": [
        {
          "internalType": "bool",
          "name": "",
          "type": "bool"
        }
      ],
      "stateMutability": "view",
      "type": "function"
    },
    {
      "inputs": [],
      "name": "symbol",
      "outputs": [
        {
          "internalType": "string",
          "name": "",
          "type": "string"
        }
      ],
      "stateMutability": "view",
      "type": "function"
    },
    {
      "inputs": [],
      "name": "teamMint",
      "outputs": [],
      "stateMutability": "nonpayable",
      "type": "function"
    },
    {
      "inputs": [],
      "name": "teamMinted",
      "outputs": [
        {
          "internalType": "bool",
          "name": "",
          "type": "bool"
        }
      ],
      "stateMutability": "view",
      "type": "function"
    },
    {
      "inputs": [
        {
          "internalType": "bool",
          "name": "_state",
          "type": "bool"
        }
      ],
      "name": "toggleTeamMinted",
      "outputs": [],
      "stateMutability": "nonpayable",
      "type": "function"
    },
    {
      "inputs": [
        {
          "internalType": "bool",
          "name": "_state",
          "type": "bool"
        }
      ],
      "name": "toggleWhiteListSale",
      "outputs": [],
      "stateMutability": "nonpayable",
      "type": "function"
    },
    {
      "inputs": [
        {
          "internalType": "bool",
          "name": "_state",
          "type": "bool"
        }
      ],
      "name": "togglepublicSale",
      "outputs": [],
      "stateMutability": "nonpayable",
      "type": "function"
    },
    {
      "inputs": [
        {
          "internalType": "uint256",
          "name": "tokenId",
          "type": "uint256"
        }
      ],
      "name": "tokenURI",
      "outputs": [
        {
          "internalType": "string",
          "name": "",
          "type": "string"
        }
      ],
      "stateMutability": "view",
      "type": "function"
    },
    {
      "inputs": [],
      "name": "totalSupply",
      "outputs": [
        {
          "internalType": "uint256",
          "name": "",
          "type": "uint256"
        }
      ],
      "stateMutability": "view",
      "type": "function"
    },
    {
      "inputs": [
        {
          "internalType": "address",
          "name": "from",
          "type": "address"
        },
        {
          "internalType": "address",
          "name": "to",
          "type": "address"
        },
        {
          "internalType": "uint256",
          "name": "tokenId",
          "type": "uint256"
        }
      ],
      "name": "transferFrom",
      "outputs": [],
      "stateMutability": "payable",
      "type": "function"
    },
    {
      "inputs": [
        {
          "internalType": "address",
          "name": "newOwner",
          "type": "address"
        }
      ],
      "name": "transferOwnership",
      "outputs": [],
      "stateMutability": "nonpayable",
      "type": "function"
    },
    {
      "inputs": [],
      "name": "whiteListSale",
      "outputs": [
        {
          "internalType": "bool",
          "name": "",
          "type": "bool"
        }
      ],
      "stateMutability": "view",
      "type": "function"
    },
    {
      "inputs": [
        {
          "internalType": "uint256",
          "name": "tokens",
          "type": "uint256"
        },
        {
          "internalType": "bytes32[]",
          "name": "merkleProof",
          "type": "bytes32[]"
        }
      ],
      "name": "whitelistMint",
      "outputs": [],
      "stateMutability": "payable",
      "type": "function"
    },
    {
      "inputs": [],
      "name": "withdraw",
      "outputs": [],
      "stateMutability": "payable",
      "type": "function"
    }
  ],
  "bytecode": "0x60806040526040518060400160405280600581526020017f2e6a736f6e000000000000000000000000000000000000000000000000000000815250600b908051906020019062000051929190620002b2565b506064600d55600a600e55600a600f5566038d7ea4c680006010556509184e72a0006011556001601260006101000a81548160ff0219169083151502179055506001601260016101000a81548160ff0219169083151502179055506000601260026101000a81548160ff0219169083151502179055506000601260036101000a81548160ff0219169083151502179055506000801b601355348015620000f657600080fd5b506040518060400160405280601581526020017f3132204b6e696768747320436f6c6c65637469766500000000000000000000008152506040518060400160405280600381526020017f544b43000000000000000000000000000000000000000000000000000000000081525081600290805190602001906200017b929190620002b2565b50806003908051906020019062000194929190620002b2565b50620001a5620001db60201b60201c565b6000819055505050620001cd620001c1620001e460201b60201c565b620001ec60201b60201c565b6001600981905550620003c7565b60006001905090565b600033905090565b6000600860009054906101000a900473ffffffffffffffffffffffffffffffffffffffff16905081600860006101000a81548173ffffffffffffffffffffffffffffffffffffffff021916908373ffffffffffffffffffffffffffffffffffffffff1602179055508173ffffffffffffffffffffffffffffffffffffffff168173ffffffffffffffffffffffffffffffffffffffff167f8be0079c531659141344cd1fd0a4f28419497f9722a3daafe3b4186f6b6457e060405160405180910390a35050565b828054620002c09062000391565b90600052602060002090601f016020900481019282620002e4576000855562000330565b82601f10620002ff57805160ff191683800117855562000330565b8280016001018555821562000330579182015b828111156200032f57825182559160200191906001019062000312565b5b5090506200033f919062000343565b5090565b5b808211156200035e57600081600090555060010162000344565b5090565b7f4e487b7100000000000000000000000000000000000000000000000000000000600052602260045260246000fd5b60006002820490506001821680620003aa57607f821691505b60208210811415620003c157620003c062000362565b5b50919050565b61432480620003d76000396000f3fe6080604052600436106102e45760003560e01c80637cb6475911610190578063c6682862116100dc578063e8b5498d11610095578063f2c4ce1e1161006f578063f2c4ce1e14610a8f578063f2fde38b14610ab8578063f3257cdd14610ae1578063f3cedb8a14610b0a576102e4565b8063e8b5498d146109fe578063e985e9c514610a29578063ed5d432914610a66576102e4565b8063c6682862146108e9578063c87b56dd14610914578063d2cab05614610951578063d5abeb011461096d578063da3ef23f14610998578063dc33e681146109c1576102e4565b8063a22cb46511610149578063b88d4fde11610123578063b88d4fde14610860578063ba7a86b81461087c578063bc912e1a14610893578063c08dfd3c146108be576102e4565b8063a22cb465146107f2578063b3ab66b01461081b578063b724753a14610837576102e4565b80637cb64759146106f657806383a076be1461071f57806386a173ee146107485780638da5cb5b14610773578063940cd05b1461079e57806395d89b41146107c7576102e4565b806333bc1c5c1161024f57806362264f701161020857806365f13097116101e257806365f130971461064c5780636c0360eb1461067757806370a08231146106a2578063715018a6146106df576102e4565b806362264f70146105bd5780636352211e146105e6578063659d968f14610623576102e4565b806333bc1c5c146104ed5780633ccfd60b1461051857806342842e0e14610522578063518302271461053e57806355f804b3146105695780635c975abb14610592576102e4565b8063095ea7b3116102a1578063095ea7b31461040d5780631201357d14610429578063149835a01461045257806318160ddd1461047b57806323b872dd146104a65780632eb4a7ab146104c2576102e4565b806301ffc9a7146102e957806302329a291461032657806306fdde031461034f57806307e89ec01461037a578063081812fc146103a5578063081c8c44146103e2575b600080fd5b3480156102f557600080fd5b50610310600480360381019061030b9190612e75565b610b33565b60405161031d9190612ebd565b60405180910390f35b34801561033257600080fd5b5061034d60048036038101906103489190612f04565b610bc5565b005b34801561035b57600080fd5b50610364610bea565b6040516103719190612fca565b60405180910390f35b34801561038657600080fd5b5061038f610c7c565b60405161039c9190613005565b60405180910390f35b3480156103b157600080fd5b506103cc60048036038101906103c7919061304c565b610c82565b6040516103d991906130ba565b60405180910390f35b3480156103ee57600080fd5b506103f7610d01565b6040516104049190612fca565b60405180910390f35b61042760048036038101906104229190613101565b610d8f565b005b34801561043557600080fd5b50610450600480360381019061044b919061304c565b610ed3565b005b34801561045e57600080fd5b506104796004803603810190610474919061304c565b610ee5565b005b34801561048757600080fd5b50610490610ef7565b60405161049d9190613005565b60405180910390f35b6104c060048036038101906104bb9190613141565b610f0e565b005b3480156104ce57600080fd5b506104d7611233565b6040516104e491906131ad565b60405180910390f35b3480156104f957600080fd5b50610502611239565b60405161050f9190612ebd565b60405180910390f35b61052061124c565b005b61053c60048036038101906105379190613141565b6112dd565b005b34801561054a57600080fd5b506105536112fd565b6040516105609190612ebd565b60405180910390f35b34801561057557600080fd5b50610590600480360381019061058b91906132fd565b611310565b005b34801561059e57600080fd5b506105a7611332565b6040516105b49190612ebd565b60405180910390f35b3480156105c957600080fd5b506105e460048036038101906105df9190612f04565b611345565b005b3480156105f257600080fd5b5061060d6004803603810190610608919061304c565b61136a565b60405161061a91906130ba565b60405180910390f35b34801561062f57600080fd5b5061064a6004803603810190610645919061304c565b61137c565b005b34801561065857600080fd5b5061066161138e565b60405161066e9190613005565b60405180910390f35b34801561068357600080fd5b5061068c611394565b6040516106999190612fca565b60405180910390f35b3480156106ae57600080fd5b506106c960048036038101906106c49190613346565b611422565b6040516106d69190613005565b60405180910390f35b3480156106eb57600080fd5b506106f46114db565b005b34801561070257600080fd5b5061071d6004803603810190610718919061339f565b6114ef565b005b34801561072b57600080fd5b50610746600480360381019061074191906133cc565b611501565b005b34801561075457600080fd5b5061075d6115c7565b60405161076a9190612ebd565b60405180910390f35b34801561077f57600080fd5b506107886115da565b60405161079591906130ba565b60405180910390f35b3480156107aa57600080fd5b506107c560048036038101906107c09190612f04565b611604565b005b3480156107d357600080fd5b506107dc611629565b6040516107e99190612fca565b60405180910390f35b3480156107fe57600080fd5b506108196004803603810190610814919061340c565b6116bb565b005b6108356004803603810190610830919061304c565b6117c6565b005b34801561084357600080fd5b5061085e6004803603810190610859919061304c565b611a1d565b005b61087a600480360381019061087591906134ed565b611a2f565b005b34801561088857600080fd5b50610891611aa2565b005b34801561089f57600080fd5b506108a8611b22565b6040516108b59190613005565b60405180910390f35b3480156108ca57600080fd5b506108d3611b28565b6040516108e09190613005565b60405180910390f35b3480156108f557600080fd5b506108fe611b2e565b60405161090b9190612fca565b60405180910390f35b34801561092057600080fd5b5061093b6004803603810190610936919061304c565b611bbc565b6040516109489190612fca565b60405180910390f35b61096b600480360381019061096691906135d0565b611d15565b005b34801561097957600080fd5b50610982612021565b60405161098f9190613005565b60405180910390f35b3480156109a457600080fd5b506109bf60048036038101906109ba91906132fd565b612027565b005b3480156109cd57600080fd5b506109e860048036038101906109e39190613346565b612049565b6040516109f59190613005565b60405180910390f35b348015610a0a57600080fd5b50610a1361205b565b604051610a209190612ebd565b60405180910390f35b348015610a3557600080fd5b50610a506004803603810190610a4b9190613630565b61206e565b604051610a5d9190612ebd565b60405180910390f35b348015610a7257600080fd5b50610a8d6004803603810190610a889190612f04565b612102565b005b348015610a9b57600080fd5b50610ab66004803603810190610ab191906132fd565b612127565b005b348015610ac457600080fd5b50610adf6004803603810190610ada9190613346565b612149565b005b348015610aed57600080fd5b50610b086004803603810190610b039190612f04565b6121cd565b005b348015610b1657600080fd5b50610b316004803603810190610b2c919061304c565b6121f2565b005b60006301ffc9a760e01b827bffffffffffffffffffffffffffffffffffffffffffffffffffffffff19161480610b8e57506380ac58cd60e01b827bffffffffffffffffffffffffffffffffffffffffffffffffffffffff1916145b80610bbe5750635b5e139f60e01b827bffffffffffffffffffffffffffffffffffffffffffffffffffffffff1916145b9050919050565b610bcd612204565b80601260006101000a81548160ff02191690831515021790555050565b606060028054610bf99061369f565b80601f0160208091040260200160405190810160405280929190818152602001828054610c259061369f565b8015610c725780601f10610c4757610100808354040283529160200191610c72565b820191906000526020600020905b815481529060010190602001808311610c5557829003601f168201915b5050505050905090565b60105481565b6000610c8d82612282565b610cc3576040517fcf4700e400000000000000000000000000000000000000000000000000000000815260040160405180910390fd5b6006600083815260200190815260200160002060000160009054906101000a900473ffffffffffffffffffffffffffffffffffffffff169050919050565b600c8054610d0e9061369f565b80601f0160208091040260200160405190810160405280929190818152602001828054610d3a9061369f565b8015610d875780601f10610d5c57610100808354040283529160200191610d87565b820191906000526020600020905b815481529060010190602001808311610d6a57829003601f168201915b505050505081565b6000610d9a8261136a565b90508073ffffffffffffffffffffffffffffffffffffffff16610dbb6122e1565b73ffffffffffffffffffffffffffffffffffffffff1614610e1e57610de781610de26122e1565b61206e565b610e1d576040517fcfb3b94200000000000000000000000000000000000000000000000000000000815260040160405180910390fd5b5b826006600084815260200190815260200160002060000160006101000a81548173ffffffffffffffffffffffffffffffffffffffff021916908373ffffffffffffffffffffffffffffffffffffffff160217905550818373ffffffffffffffffffffffffffffffffffffffff168273ffffffffffffffffffffffffffffffffffffffff167f8c5be1e5ebec7d5bd14f71427d1e84f3dd0314c0f7b2291e5b200ac8c7c3b92560405160405180910390a4505050565b610edb612204565b8060118190555050565b610eed612204565b80600d8190555050565b6000610f016122e9565b6001546000540303905090565b6000610f19826122f2565b90508373ffffffffffffffffffffffffffffffffffffffff168173ffffffffffffffffffffffffffffffffffffffff1614610f80576040517fa114810000000000000000000000000000000000000000000000000000000000815260040160405180910390fd5b600080610f8c846123c0565b91509150610fa28187610f9d6122e1565b6123e7565b610fee57610fb786610fb26122e1565b61206e565b610fed576040517f59c896be00000000000000000000000000000000000000000000000000000000815260040160405180910390fd5b5b600073ffffffffffffffffffffffffffffffffffffffff168573ffffffffffffffffffffffffffffffffffffffff161415611055576040517fea553b3400000000000000000000000000000000000000000000000000000000815260040160405180910390fd5b611062868686600161242b565b801561106d57600082555b600560008773ffffffffffffffffffffffffffffffffffffffff1673ffffffffffffffffffffffffffffffffffffffff168152602001908152602001600020600081546001900391905081905550600560008673ffffffffffffffffffffffffffffffffffffffff1673ffffffffffffffffffffffffffffffffffffffff168152602001908152602001600020600081546001019190508190555061113b85611117888887612431565b7c020000000000000000000000000000000000000000000000000000000017612459565b600460008681526020019081526020016000208190555060007c0200000000000000000000000000000000000000000000000000000000841614156111c35760006001850190506000600460008381526020019081526020016000205414156111c15760005481146111c0578360046000838152602001908152602001600020819055505b5b505b838573ffffffffffffffffffffffffffffffffffffffff168773ffffffffffffffffffffffffffffffffffffffff167fddf252ad1be2c89b69c2b068fc378daa952ba7f163c4a11628f55a4df523b3ef60405160405180910390a461122b8686866001612484565b505050505050565b60135481565b601260039054906101000a900460ff1681565b611254612204565b61125c61248a565b60003373ffffffffffffffffffffffffffffffffffffffff164760405161128290613702565b60006040518083038185875af1925050503d80600081146112bf576040519150601f19603f3d011682016040523d82523d6000602084013e6112c4565b606091505b50509050806112d257600080fd5b506112db6124da565b565b6112f883838360405180602001604052806000815250611a2f565b505050565b601260019054906101000a900460ff1681565b611318612204565b80600a908051906020019061132e929190612d66565b5050565b601260009054906101000a900460ff1681565b61134d612204565b80601260026101000a81548160ff02191690831515021790555050565b6000611375826122f2565b9050919050565b611384612204565b80600e8190555050565b600e5481565b600a80546113a19061369f565b80601f01602080910402602001604051908101604052809291908181526020018280546113cd9061369f565b801561141a5780601f106113ef5761010080835404028352916020019161141a565b820191906000526020600020905b8154815290600101906020018083116113fd57829003601f168201915b505050505081565b60008073ffffffffffffffffffffffffffffffffffffffff168273ffffffffffffffffffffffffffffffffffffffff16141561148a576040517f8f4eb60400000000000000000000000000000000000000000000000000000000815260040160405180910390fd5b67ffffffffffffffff600560008473ffffffffffffffffffffffffffffffffffffffff1673ffffffffffffffffffffffffffffffffffffffff16815260200190815260200160002054169050919050565b6114e3612204565b6114ed60006124e4565b565b6114f7612204565b8060138190555050565b611509612204565b61151161248a565b60008211611554576040517f08c379a000000000000000000000000000000000000000000000000000000000815260040161154b90613763565b60405180910390fd5b600061155e610ef7565b9050600d54838261156f91906137b2565b11156115b0576040517f08c379a00000000000000000000000000000000000000000000000000000000081526004016115a790613854565b60405180910390fd5b6115ba82846125aa565b506115c36124da565b5050565b601260029054906101000a900460ff1681565b6000600860009054906101000a900473ffffffffffffffffffffffffffffffffffffffff16905090565b61160c612204565b80601260016101000a81548160ff02191690831515021790555050565b6060600380546116389061369f565b80601f01602080910402602001604051908101604052809291908181526020018280546116649061369f565b80156116b15780601f10611686576101008083540402835291602001916116b1565b820191906000526020600020905b81548152906001019060200180831161169457829003601f168201915b5050505050905090565b80600760006116c86122e1565b73ffffffffffffffffffffffffffffffffffffffff1673ffffffffffffffffffffffffffffffffffffffff16815260200190815260200160002060008473ffffffffffffffffffffffffffffffffffffffff1673ffffffffffffffffffffffffffffffffffffffff16815260200190815260200160002060006101000a81548160ff0219169083151502179055508173ffffffffffffffffffffffffffffffffffffffff166117756122e1565b73ffffffffffffffffffffffffffffffffffffffff167f17307eab39ab6107e8899845ad3d59bd9653f200f220920489ca2b5937696c31836040516117ba9190612ebd565b60405180910390a35050565b6117ce61248a565b601260009054906101000a900460ff161561181e576040517f08c379a0000000000000000000000000000000000000000000000000000000008152600401611815906138c0565b60405180910390fd5b601260039054906101000a900460ff1661186d576040517f08c379a00000000000000000000000000000000000000000000000000000000081526004016118649061392c565b60405180910390fd5b6000611877610ef7565b9050600082116118bc576040517f08c379a00000000000000000000000000000000000000000000000000000000081526004016118b390613763565b60405180910390fd5b600e54821115611901576040517f08c379a00000000000000000000000000000000000000000000000000000000081526004016118f890613998565b60405180910390fd5b600d54828261191091906137b2565b1115611951576040517f08c379a000000000000000000000000000000000000000000000000000000000815260040161194890613a04565b60405180910390fd5b600e54826119656119606125c8565b6125d0565b61196f91906137b2565b11156119b0576040517f08c379a00000000000000000000000000000000000000000000000000000000081526004016119a790613a70565b60405180910390fd5b816010546119be9190613a90565b341015611a00576040517f08c379a00000000000000000000000000000000000000000000000000000000081526004016119f790613b36565b60405180910390fd5b611a11611a0b6125c8565b836125aa565b50611a1a6124da565b50565b611a25612204565b80600f8190555050565b611a3a848484610f0e565b60008373ffffffffffffffffffffffffffffffffffffffff163b14611a9c57611a6584848484612627565b611a9b576040517fd1a57ed600000000000000000000000000000000000000000000000000000000815260040160405180910390fd5b5b50505050565b611aaa612204565b601260049054906101000a900460ff1615611afa576040517f08c379a0000000000000000000000000000000000000000000000000000000008152600401611af190613bc8565b60405180910390fd5b6001601260046101000a81548160ff021916908315150217905550611b203360146125aa565b565b60115481565b600f5481565b600b8054611b3b9061369f565b80601f0160208091040260200160405190810160405280929190818152602001828054611b679061369f565b8015611bb45780601f10611b8957610100808354040283529160200191611bb4565b820191906000526020600020905b815481529060010190602001808311611b9757829003601f168201915b505050505081565b6060611bc782612282565b611c06576040517f08c379a0000000000000000000000000000000000000000000000000000000008152600401611bfd90613c5a565b60405180910390fd5b60001515601260019054906101000a900460ff1615151415611cb457600c8054611c2f9061369f565b80601f0160208091040260200160405190810160405280929190818152602001828054611c5b9061369f565b8015611ca85780601f10611c7d57610100808354040283529160200191611ca8565b820191906000526020600020905b815481529060010190602001808311611c8b57829003601f168201915b50505050509050611d10565b6000611cbe612787565b90506000815111611cde5760405180602001604052806000815250611d0c565b80611ce884612819565b600b604051602001611cfc93929190613d4a565b6040516020818303038152906040525b9150505b919050565b611d1d61248a565b601260009054906101000a900460ff1615611d6d576040517f08c379a0000000000000000000000000000000000000000000000000000000008152600401611d64906138c0565b60405180910390fd5b601260029054906101000a900460ff16611dbc576040517f08c379a0000000000000000000000000000000000000000000000000000000008152600401611db390613dc7565b60405180910390fd5b611e30828280806020026020016040519081016040528093929190818152602001838360200280828437600081840152601f19601f8201169050808301925050505050505060135433604051602001611e159190613e2f565b604051602081830303815290604052805190602001206128f1565b611e6f576040517f08c379a0000000000000000000000000000000000000000000000000000000008152600401611e6690613e96565b60405180910390fd5b6000611e79610ef7565b9050600f5484611e8f611e8a6125c8565b6125d0565b611e9991906137b2565b1115611eda576040517f08c379a0000000000000000000000000000000000000000000000000000000008152600401611ed190613f02565b60405180910390fd5b60008411611f1d576040517f08c379a0000000000000000000000000000000000000000000000000000000008152600401611f1490613763565b60405180910390fd5b600d548482611f2c91906137b2565b1115611f6d576040517f08c379a0000000000000000000000000000000000000000000000000000000008152600401611f6490613a04565b60405180910390fd5b600f54841115611fb2576040517f08c379a0000000000000000000000000000000000000000000000000000000008152600401611fa990613f6e565b60405180910390fd5b83601154611fc09190613a90565b341015612002576040517f08c379a0000000000000000000000000000000000000000000000000000000008152600401611ff990613fda565b60405180910390fd5b61201361200d6125c8565b856125aa565b5061201c6124da565b505050565b600d5481565b61202f612204565b80600b9080519060200190612045929190612d66565b5050565b6000612054826125d0565b9050919050565b601260049054906101000a900460ff1681565b6000600760008473ffffffffffffffffffffffffffffffffffffffff1673ffffffffffffffffffffffffffffffffffffffff16815260200190815260200160002060008373ffffffffffffffffffffffffffffffffffffffff1673ffffffffffffffffffffffffffffffffffffffff16815260200190815260200160002060009054906101000a900460ff16905092915050565b61210a612204565b80601260046101000a81548160ff02191690831515021790555050565b61212f612204565b80600c9080519060200190612145929190612d66565b5050565b612151612204565b600073ffffffffffffffffffffffffffffffffffffffff168173ffffffffffffffffffffffffffffffffffffffff1614156121c1576040517f08c379a00000000000000000000000000000000000000000000000000000000081526004016121b89061406c565b60405180910390fd5b6121ca816124e4565b50565b6121d5612204565b80601260036101000a81548160ff02191690831515021790555050565b6121fa612204565b8060108190555050565b61220c6125c8565b73ffffffffffffffffffffffffffffffffffffffff1661222a6115da565b73ffffffffffffffffffffffffffffffffffffffff1614612280576040517f08c379a0000000000000000000000000000000000000000000000000000000008152600401612277906140d8565b60405180910390fd5b565b60008161228d6122e9565b1115801561229c575060005482105b80156122da575060007c0100000000000000000000000000000000000000000000000000000000600460008581526020019081526020016000205416145b9050919050565b600033905090565b60006001905090565b600080829050806123016122e9565b11612389576000548110156123885760006004600083815260200190815260200160002054905060007c010000000000000000000000000000000000000000000000000000000082161415612386575b600081141561237c576004600083600190039350838152602001908152602001600020549050612351565b80925050506123bb565b505b5b6040517fdf2d9b4200000000000000000000000000000000000000000000000000000000815260040160405180910390fd5b919050565b60008060006006600085815260200190815260200160002090508092508254915050915091565b600073ffffffffffffffffffffffffffffffffffffffff8316925073ffffffffffffffffffffffffffffffffffffffff821691508382148383141790509392505050565b50505050565b60008060e883901c905060e8612448868684612908565b62ffffff16901b9150509392505050565b600073ffffffffffffffffffffffffffffffffffffffff83169250814260a01b178317905092915050565b50505050565b600260095414156124d0576040517f08c379a00000000000000000000000000000000000000000000000000000000081526004016124c790614144565b60405180910390fd5b6002600981905550565b6001600981905550565b6000600860009054906101000a900473ffffffffffffffffffffffffffffffffffffffff16905081600860006101000a81548173ffffffffffffffffffffffffffffffffffffffff021916908373ffffffffffffffffffffffffffffffffffffffff1602179055508173ffffffffffffffffffffffffffffffffffffffff168173ffffffffffffffffffffffffffffffffffffffff167f8be0079c531659141344cd1fd0a4f28419497f9722a3daafe3b4186f6b6457e060405160405180910390a35050565b6125c4828260405180602001604052806000815250612911565b5050565b600033905090565b600067ffffffffffffffff6040600560008573ffffffffffffffffffffffffffffffffffffffff1673ffffffffffffffffffffffffffffffffffffffff16815260200190815260200160002054901c169050919050565b60008373ffffffffffffffffffffffffffffffffffffffff1663150b7a0261264d6122e1565b8786866040518563ffffffff1660e01b815260040161266f94939291906141b9565b602060405180830381600087803b15801561268957600080fd5b505af19250505080156126ba57506040513d601f19601f820116820180604052508101906126b7919061421a565b60015b612734573d80600081146126ea576040519150601f19603f3d011682016040523d82523d6000602084013e6126ef565b606091505b5060008151141561272c576040517fd1a57ed600000000000000000000000000000000000000000000000000000000815260040160405180910390fd5b805181602001fd5b63150b7a0260e01b7bffffffffffffffffffffffffffffffffffffffffffffffffffffffff1916817bffffffffffffffffffffffffffffffffffffffffffffffffffffffff191614915050949350505050565b6060600a80546127969061369f565b80601f01602080910402602001604051908101604052809291908181526020018280546127c29061369f565b801561280f5780601f106127e45761010080835404028352916020019161280f565b820191906000526020600020905b8154815290600101906020018083116127f257829003601f168201915b5050505050905090565b606060006001612828846129ae565b01905060008167ffffffffffffffff811115612847576128466131d2565b5b6040519080825280601f01601f1916602001820160405280156128795781602001600182028036833780820191505090505b509050600082602001820190505b6001156128e6578080600190039150507f3031323334353637383961626364656600000000000000000000000000000000600a86061a8153600a85816128d0576128cf614247565b5b04945060008514156128e1576128e6565b612887565b819350505050919050565b6000826128fe8584612b01565b1490509392505050565b60009392505050565b61291b8383612b57565b60008373ffffffffffffffffffffffffffffffffffffffff163b146129a957600080549050600083820390505b61295b6000868380600101945086612627565b612991576040517fd1a57ed600000000000000000000000000000000000000000000000000000000815260040160405180910390fd5b8181106129485781600054146129a657600080fd5b50505b505050565b600080600090507a184f03e93ff9f4daa797ed6e38ed64bf6a1f0100000000000000008310612a0c577a184f03e93ff9f4daa797ed6e38ed64bf6a1f0100000000000000008381612a0257612a01614247565b5b0492506040810190505b6d04ee2d6d415b85acef81000000008310612a49576d04ee2d6d415b85acef81000000008381612a3f57612a3e614247565b5b0492506020810190505b662386f26fc100008310612a7857662386f26fc100008381612a6e57612a6d614247565b5b0492506010810190505b6305f5e1008310612aa1576305f5e1008381612a9757612a96614247565b5b0492506008810190505b6127108310612ac6576127108381612abc57612abb614247565b5b0492506004810190505b60648310612ae95760648381612adf57612ade614247565b5b0492506002810190505b600a8310612af8576001810190505b80915050919050565b60008082905060005b8451811015612b4c57612b3782868381518110612b2a57612b29614276565b5b6020026020010151612d14565b91508080612b44906142a5565b915050612b0a565b508091505092915050565b6000805490506000821415612b98576040517fb562e8dd00000000000000000000000000000000000000000000000000000000815260040160405180910390fd5b612ba5600084838561242b565b600160406001901b178202600560008573ffffffffffffffffffffffffffffffffffffffff1673ffffffffffffffffffffffffffffffffffffffff16815260200190815260200160002060008282540192505081905550612c1c83612c0d6000866000612431565b612c1685612d3f565b17612459565b6004600083815260200190815260200160002081905550600080838301905073ffffffffffffffffffffffffffffffffffffffff85169150828260007fddf252ad1be2c89b69c2b068fc378daa952ba7f163c4a11628f55a4df523b3ef600080a4600183015b818114612cbd57808360007fddf252ad1be2c89b69c2b068fc378daa952ba7f163c4a11628f55a4df523b3ef600080a4600181019050612c82565b506000821415612cf9576040517f2e07630000000000000000000000000000000000000000000000000000000000815260040160405180910390fd5b806000819055505050612d0f6000848385612484565b505050565b6000818310612d2c57612d278284612d4f565b612d37565b612d368383612d4f565b5b905092915050565b60006001821460e11b9050919050565b600082600052816020526040600020905092915050565b828054612d729061369f565b90600052602060002090601f016020900481019282612d945760008555612ddb565b82601f10612dad57805160ff1916838001178555612ddb565b82800160010185558215612ddb579182015b82811115612dda578251825591602001919060010190612dbf565b5b509050612de89190612dec565b5090565b5b80821115612e05576000816000905550600101612ded565b5090565b6000604051905090565b600080fd5b600080fd5b60007fffffffff0000000000000000000000000000000000000000000000000000000082169050919050565b612e5281612e1d565b8114612e5d57600080fd5b50565b600081359050612e6f81612e49565b92915050565b600060208284031215612e8b57612e8a612e13565b5b6000612e9984828501612e60565b91505092915050565b60008115159050919050565b612eb781612ea2565b82525050565b6000602082019050612ed26000830184612eae565b92915050565b612ee181612ea2565b8114612eec57600080fd5b50565b600081359050612efe81612ed8565b92915050565b600060208284031215612f1a57612f19612e13565b5b6000612f2884828501612eef565b91505092915050565b600081519050919050565b600082825260208201905092915050565b60005b83811015612f6b578082015181840152602081019050612f50565b83811115612f7a576000848401525b50505050565b6000601f19601f8301169050919050565b6000612f9c82612f31565b612fa68185612f3c565b9350612fb6818560208601612f4d565b612fbf81612f80565b840191505092915050565b60006020820190508181036000830152612fe48184612f91565b905092915050565b6000819050919050565b612fff81612fec565b82525050565b600060208201905061301a6000830184612ff6565b92915050565b61302981612fec565b811461303457600080fd5b50565b60008135905061304681613020565b92915050565b60006020828403121561306257613061612e13565b5b600061307084828501613037565b91505092915050565b600073ffffffffffffffffffffffffffffffffffffffff82169050919050565b60006130a482613079565b9050919050565b6130b481613099565b82525050565b60006020820190506130cf60008301846130ab565b92915050565b6130de81613099565b81146130e957600080fd5b50565b6000813590506130fb816130d5565b92915050565b6000806040838503121561311857613117612e13565b5b6000613126858286016130ec565b925050602061313785828601613037565b9150509250929050565b60008060006060848603121561315a57613159612e13565b5b6000613168868287016130ec565b9350506020613179868287016130ec565b925050604061318a86828701613037565b9150509250925092565b6000819050919050565b6131a781613194565b82525050565b60006020820190506131c2600083018461319e565b92915050565b600080fd5b600080fd5b7f4e487b7100000000000000000000000000000000000000000000000000000000600052604160045260246000fd5b61320a82612f80565b810181811067ffffffffffffffff82111715613229576132286131d2565b5b80604052505050565b600061323c612e09565b90506132488282613201565b919050565b600067ffffffffffffffff821115613268576132676131d2565b5b61327182612f80565b9050602081019050919050565b82818337600083830152505050565b60006132a061329b8461324d565b613232565b9050828152602081018484840111156132bc576132bb6131cd565b5b6132c784828561327e565b509392505050565b600082601f8301126132e4576132e36131c8565b5b81356132f484826020860161328d565b91505092915050565b60006020828403121561331357613312612e13565b5b600082013567ffffffffffffffff81111561333157613330612e18565b5b61333d848285016132cf565b91505092915050565b60006020828403121561335c5761335b612e13565b5b600061336a848285016130ec565b91505092915050565b61337c81613194565b811461338757600080fd5b50565b60008135905061339981613373565b92915050565b6000602082840312156133b5576133b4612e13565b5b60006133c38482850161338a565b91505092915050565b600080604083850312156133e3576133e2612e13565b5b60006133f185828601613037565b9250506020613402858286016130ec565b9150509250929050565b6000806040838503121561342357613422612e13565b5b6000613431858286016130ec565b925050602061344285828601612eef565b9150509250929050565b600067ffffffffffffffff821115613467576134666131d2565b5b61347082612f80565b9050602081019050919050565b600061349061348b8461344c565b613232565b9050828152602081018484840111156134ac576134ab6131cd565b5b6134b784828561327e565b509392505050565b600082601f8301126134d4576134d36131c8565b5b81356134e484826020860161347d565b91505092915050565b6000806000806080858703121561350757613506612e13565b5b6000613515878288016130ec565b9450506020613526878288016130ec565b935050604061353787828801613037565b925050606085013567ffffffffffffffff81111561355857613557612e18565b5b613564878288016134bf565b91505092959194509250565b600080fd5b600080fd5b60008083601f8401126135905761358f6131c8565b5b8235905067ffffffffffffffff8111156135ad576135ac613570565b5b6020830191508360208202830111156135c9576135c8613575565b5b9250929050565b6000806000604084860312156135e9576135e8612e13565b5b60006135f786828701613037565b935050602084013567ffffffffffffffff81111561361857613617612e18565b5b6136248682870161357a565b92509250509250925092565b6000806040838503121561364757613646612e13565b5b6000613655858286016130ec565b9250506020613666858286016130ec565b9150509250929050565b7f4e487b7100000000000000000000000000000000000000000000000000000000600052602260045260246000fd5b600060028204905060018216806136b757607f821691505b602082108114156136cb576136ca613670565b5b50919050565b600081905092915050565b50565b60006136ec6000836136d1565b91506136f7826136dc565b600082019050919050565b600061370d826136df565b9150819050919050565b7f6e65656420746f206d696e74206174206c656173742031204e46540000000000600082015250565b600061374d601b83612f3c565b915061375882613717565b602082019050919050565b6000602082019050818103600083015261377c81613740565b9050919050565b7f4e487b7100000000000000000000000000000000000000000000000000000000600052601160045260246000fd5b60006137bd82612fec565b91506137c883612fec565b9250827fffffffffffffffffffffffffffffffffffffffffffffffffffffffffffffffff038211156137fd576137fc613783565b5b828201905092915050565b7f6d6178204e4654206c696d697420657863656564656400000000000000000000600082015250565b600061383e601683612f3c565b915061384982613808565b602082019050919050565b6000602082019050818103600083015261386d81613831565b9050919050565b7f6f6f707320636f6e747261637420697320706175736564000000000000000000600082015250565b60006138aa601783612f3c565b91506138b582613874565b602082019050919050565b600060208201905081810360008301526138d98161389d565b9050919050565b7f53616c65204861736e2774207374617274656420796574000000000000000000600082015250565b6000613916601783612f3c565b9150613921826138e0565b602082019050919050565b6000602082019050818103600083015261394581613909565b9050919050565b7f6d6178206d696e7420616d6f756e742070657220747820657863656564656400600082015250565b6000613982601f83612f3c565b915061398d8261394c565b602082019050919050565b600060208201905081810360008301526139b181613975565b9050919050565b7f576520536f6c646f757400000000000000000000000000000000000000000000600082015250565b60006139ee600a83612f3c565b91506139f9826139b8565b602082019050919050565b60006020820190508181036000830152613a1d816139e1565b9050919050565b7f204d6178204e4654205065722057616c6c657420657863656564656400000000600082015250565b6000613a5a601c83612f3c565b9150613a6582613a24565b602082019050919050565b60006020820190508181036000830152613a8981613a4d565b9050919050565b6000613a9b82612fec565b9150613aa683612fec565b9250817fffffffffffffffffffffffffffffffffffffffffffffffffffffffffffffffff0483118215151615613adf57613ade613783565b5b828202905092915050565b7f696e73756666696369656e742066756e64730000000000000000000000000000600082015250565b6000613b20601283612f3c565b9150613b2b82613aea565b602082019050919050565b60006020820190508181036000830152613b4f81613b13565b9050919050565b7f3132204b6e6967687473203a3a205465616d20616c7265616479206d696e746560008201527f6400000000000000000000000000000000000000000000000000000000000000602082015250565b6000613bb2602183612f3c565b9150613bbd82613b56565b604082019050919050565b60006020820190508181036000830152613be181613ba5565b9050919050565b7f455243373231414d657461646174613a2055524920717565727920666f72206e60008201527f6f6e6578697374656e7420746f6b656e00000000000000000000000000000000602082015250565b6000613c44603083612f3c565b9150613c4f82613be8565b604082019050919050565b60006020820190508181036000830152613c7381613c37565b9050919050565b600081905092915050565b6000613c9082612f31565b613c9a8185613c7a565b9350613caa818560208601612f4d565b80840191505092915050565b60008190508160005260206000209050919050565b60008154613cd88161369f565b613ce28186613c7a565b94506001821660008114613cfd5760018114613d0e57613d41565b60ff19831686528186019350613d41565b613d1785613cb6565b60005b83811015613d3957815481890152600182019150602081019050613d1a565b838801955050505b50505092915050565b6000613d568286613c85565b9150613d628285613c85565b9150613d6e8284613ccb565b9150819050949350505050565b7f776c206d696e74204861736e2774207374617274656420796574000000000000600082015250565b6000613db1601a83612f3c565b9150613dbc82613d7b565b602082019050919050565b60006020820190508181036000830152613de081613da4565b9050919050565b60008160601b9050919050565b6000613dff82613de7565b9050919050565b6000613e1182613df4565b9050919050565b613e29613e2482613099565b613e06565b82525050565b6000613e3b8284613e18565b60148201915081905092915050565b7f20596f7520617265206e6f7420696e207468652077686974656c697374000000600082015250565b6000613e80601d83612f3c565b9150613e8b82613e4a565b602082019050919050565b60006020820190508181036000830152613eaf81613e73565b9050919050565b7f4d6178204e4654205065722057616c6c65742065786365656465640000000000600082015250565b6000613eec601b83612f3c565b9150613ef782613eb6565b602082019050919050565b60006020820190508181036000830152613f1b81613edf565b9050919050565b7f6d6178206d696e74207065722054782065786365656465640000000000000000600082015250565b6000613f58601883612f3c565b9150613f6382613f22565b602082019050919050565b60006020820190508181036000830152613f8781613f4b565b9050919050565b7f6e6f7420656e6f75676820657468000000000000000000000000000000000000600082015250565b6000613fc4600e83612f3c565b9150613fcf82613f8e565b602082019050919050565b60006020820190508181036000830152613ff381613fb7565b9050919050565b7f4f776e61626c653a206e6577206f776e657220697320746865207a65726f206160008201527f6464726573730000000000000000000000000000000000000000000000000000602082015250565b6000614056602683612f3c565b915061406182613ffa565b604082019050919050565b6000602082019050818103600083015261408581614049565b9050919050565b7f4f776e61626c653a2063616c6c6572206973206e6f7420746865206f776e6572600082015250565b60006140c2602083612f3c565b91506140cd8261408c565b602082019050919050565b600060208201905081810360008301526140f1816140b5565b9050919050565b7f5265656e7472616e637947756172643a207265656e7472616e742063616c6c00600082015250565b600061412e601f83612f3c565b9150614139826140f8565b602082019050919050565b6000602082019050818103600083015261415d81614121565b9050919050565b600081519050919050565b600082825260208201905092915050565b600061418b82614164565b614195818561416f565b93506141a5818560208601612f4d565b6141ae81612f80565b840191505092915050565b60006080820190506141ce60008301876130ab565b6141db60208301866130ab565b6141e86040830185612ff6565b81810360608301526141fa8184614180565b905095945050505050565b60008151905061421481612e49565b92915050565b6000602082840312156142305761422f612e13565b5b600061423e84828501614205565b91505092915050565b7f4e487b7100000000000000000000000000000000000000000000000000000000600052601260045260246000fd5b7f4e487b7100000000000000000000000000000000000000000000000000000000600052603260045260246000fd5b60006142b082612fec565b91507fffffffffffffffffffffffffffffffffffffffffffffffffffffffffffffffff8214156142e3576142e2613783565b5b60018201905091905056fea2646970667358221220c9195c6ff33113da028d4a34a9d70ad0d1590c4e257942d058bd156e385031c664736f6c63430008090033",
  "linkReferences": {},
  "deployedLinkReferences": {}
}