{
  "_format": "hh-sol-artifact-1",
  "contractName": "TwelveKnights",
  "sourceName": "contracts/TwelveKnights.sol",
  "abi": [
    {
      "inputs": [],
      "stateMutability": "nonpayable",
      "type": "constructor"
    },
    {
      "inputs": [],
      "name": "ApprovalCallerNotOwnerNorApproved",
      "type": "error"
    },
    {
      "inputs": [],
      "name": "ApprovalQueryForNonexistentToken",
      "type": "error"
    },
    {
      "inputs": [],
      "name": "ApprovalToCurrentOwner",
      "type": "error"
    },
    {
      "inputs": [],
      "name": "ApproveToCaller",
      "type": "error"
    },
    {
      "inputs": [],
      "name": "BalanceQueryForZeroAddress",
      "type": "error"
    },
    {
      "inputs": [],
      "name": "InvalidQueryRange",
      "type": "error"
    },
    {
      "inputs": [],
      "name": "MintToZeroAddress",
      "type": "error"
    },
    {
      "inputs": [],
      "name": "MintZeroQuantity",
      "type": "error"
    },
    {
      "inputs": [
        {
          "internalType": "address",
          "name": "operator",
          "type": "address"
        }
      ],
      "name": "OperatorNotAllowed",
      "type": "error"
    },
    {
      "inputs": [],
      "name": "OwnerQueryForNonexistentToken",
      "type": "error"
    },
    {
      "inputs": [],
      "name": "TransferCallerNotOwnerNorApproved",
      "type": "error"
    },
    {
      "inputs": [],
      "name": "TransferFromIncorrectOwner",
      "type": "error"
    },
    {
      "inputs": [],
      "name": "TransferToNonERC721ReceiverImplementer",
      "type": "error"
    },
    {
      "inputs": [],
      "name": "TransferToZeroAddress",
      "type": "error"
    },
    {
      "anonymous": false,
      "inputs": [
        {
          "indexed": true,
          "internalType": "address",
          "name": "owner",
          "type": "address"
        },
        {
          "indexed": true,
          "internalType": "address",
          "name": "approved",
          "type": "address"
        },
        {
          "indexed": true,
          "internalType": "uint256",
          "name": "tokenId",
          "type": "uint256"
        }
      ],
      "name": "Approval",
      "type": "event"
    },
    {
      "anonymous": false,
      "inputs": [
        {
          "indexed": true,
          "internalType": "address",
          "name": "owner",
          "type": "address"
        },
        {
          "indexed": true,
          "internalType": "address",
          "name": "operator",
          "type": "address"
        },
        {
          "indexed": false,
          "internalType": "bool",
          "name": "approved",
          "type": "bool"
        }
      ],
      "name": "ApprovalForAll",
      "type": "event"
    },
    {
      "anonymous": false,
      "inputs": [
        {
          "indexed": true,
          "internalType": "address",
          "name": "previousOwner",
          "type": "address"
        },
        {
          "indexed": true,
          "internalType": "address",
          "name": "newOwner",
          "type": "address"
        }
      ],
      "name": "OwnershipTransferred",
      "type": "event"
    },
    {
      "anonymous": false,
      "inputs": [
        {
          "indexed": true,
          "internalType": "address",
          "name": "from",
          "type": "address"
        },
        {
          "indexed": true,
          "internalType": "address",
          "name": "to",
          "type": "address"
        },
        {
          "indexed": true,
          "internalType": "uint256",
          "name": "tokenId",
          "type": "uint256"
        }
      ],
      "name": "Transfer",
      "type": "event"
    },
    {
      "inputs": [],
      "name": "MAX_PUBLIC_MINT",
      "outputs": [
        {
          "internalType": "uint256",
          "name": "",
          "type": "uint256"
        }
      ],
      "stateMutability": "view",
      "type": "function"
    },
    {
      "inputs": [],
      "name": "MAX_SUPPLY",
      "outputs": [
        {
          "internalType": "uint256",
          "name": "",
          "type": "uint256"
        }
      ],
      "stateMutability": "view",
      "type": "function"
    },
    {
      "inputs": [],
      "name": "MAX_WHITELIST_MINT",
      "outputs": [
        {
          "internalType": "uint256",
          "name": "",
          "type": "uint256"
        }
      ],
      "stateMutability": "view",
      "type": "function"
    },
    {
      "inputs": [],
      "name": "PUBLIC_SALE_PRICE",
      "outputs": [
        {
          "internalType": "uint256",
          "name": "",
          "type": "uint256"
        }
      ],
      "stateMutability": "view",
      "type": "function"
    },
    {
      "inputs": [],
      "name": "WHITELIST_SALE_PRICE",
      "outputs": [
        {
          "internalType": "uint256",
          "name": "",
          "type": "uint256"
        }
      ],
      "stateMutability": "view",
      "type": "function"
    },
    {
      "inputs": [
        {
          "internalType": "address",
          "name": "to",
          "type": "address"
        },
        {
          "internalType": "uint256",
          "name": "tokenId",
          "type": "uint256"
        }
      ],
      "name": "approve",
      "outputs": [],
      "stateMutability": "nonpayable",
      "type": "function"
    },
    {
      "inputs": [
        {
          "internalType": "address",
          "name": "owner",
          "type": "address"
        }
      ],
      "name": "balanceOf",
      "outputs": [
        {
          "internalType": "uint256",
          "name": "",
          "type": "uint256"
        }
      ],
      "stateMutability": "view",
      "type": "function"
    },
    {
      "inputs": [],
      "name": "coldWallet",
      "outputs": [
        {
          "internalType": "address",
          "name": "",
          "type": "address"
        }
      ],
      "stateMutability": "view",
      "type": "function"
    },
    {
      "inputs": [
        {
          "internalType": "uint256",
          "name": "tokenId",
          "type": "uint256"
        }
      ],
      "name": "getApproved",
      "outputs": [
        {
          "internalType": "address",
          "name": "",
          "type": "address"
        }
      ],
      "stateMutability": "view",
      "type": "function"
    },
    {
      "inputs": [],
      "name": "getMerkleRoot",
      "outputs": [
        {
          "internalType": "bytes32",
          "name": "",
          "type": "bytes32"
        }
      ],
      "stateMutability": "view",
      "type": "function"
    },
    {
      "inputs": [
        {
          "internalType": "address",
          "name": "owner",
          "type": "address"
        },
        {
          "internalType": "address",
          "name": "operator",
          "type": "address"
        }
      ],
      "name": "isApprovedForAll",
      "outputs": [
        {
          "internalType": "bool",
          "name": "",
          "type": "bool"
        }
      ],
      "stateMutability": "view",
      "type": "function"
    },
    {
      "inputs": [],
      "name": "isRevealed",
      "outputs": [
        {
          "internalType": "bool",
          "name": "",
          "type": "bool"
        }
      ],
      "stateMutability": "view",
      "type": "function"
    },
    {
      "inputs": [
        {
          "internalType": "uint256",
          "name": "_quantity",
          "type": "uint256"
        }
      ],
      "name": "mint",
      "outputs": [],
      "stateMutability": "payable",
      "type": "function"
    },
    {
      "inputs": [],
      "name": "name",
      "outputs": [
        {
          "internalType": "string",
          "name": "",
          "type": "string"
        }
      ],
      "stateMutability": "view",
      "type": "function"
    },
    {
      "inputs": [],
      "name": "owner",
      "outputs": [
        {
          "internalType": "address",
          "name": "",
          "type": "address"
        }
      ],
      "stateMutability": "view",
      "type": "function"
    },
    {
      "inputs": [
        {
          "internalType": "uint256",
          "name": "tokenId",
          "type": "uint256"
        }
      ],
      "name": "ownerOf",
      "outputs": [
        {
          "internalType": "address",
          "name": "",
          "type": "address"
        }
      ],
      "stateMutability": "view",
      "type": "function"
    },
    {
      "inputs": [],
      "name": "pause",
      "outputs": [
        {
          "internalType": "bool",
          "name": "",
          "type": "bool"
        }
      ],
      "stateMutability": "view",
      "type": "function"
    },
    {
      "inputs": [],
      "name": "placeholderTokenUri",
      "outputs": [
        {
          "internalType": "string",
          "name": "",
          "type": "string"
        }
      ],
      "stateMutability": "view",
      "type": "function"
    },
    {
      "inputs": [],
      "name": "publicSale",
      "outputs": [
        {
          "internalType": "bool",
          "name": "",
          "type": "bool"
        }
      ],
      "stateMutability": "view",
      "type": "function"
    },
    {
      "inputs": [],
      "name": "renounceOwnership",
      "outputs": [],
      "stateMutability": "nonpayable",
      "type": "function"
    },
    {
      "inputs": [
        {
          "internalType": "address",
          "name": "from",
          "type": "address"
        },
        {
          "internalType": "address",
          "name": "to",
          "type": "address"
        },
        {
          "internalType": "uint256",
          "name": "tokenId",
          "type": "uint256"
        }
      ],
      "name": "safeTransferFrom",
      "outputs": [],
      "stateMutability": "nonpayable",
      "type": "function"
    },
    {
      "inputs": [
        {
          "internalType": "address",
          "name": "from",
          "type": "address"
        },
        {
          "internalType": "address",
          "name": "to",
          "type": "address"
        },
        {
          "internalType": "uint256",
          "name": "tokenId",
          "type": "uint256"
        },
        {
          "internalType": "bytes",
          "name": "data",
          "type": "bytes"
        }
      ],
      "name": "safeTransferFrom",
      "outputs": [],
      "stateMutability": "nonpayable",
      "type": "function"
    },
    {
      "inputs": [
        {
          "internalType": "address",
          "name": "operator",
          "type": "address"
        },
        {
          "internalType": "bool",
          "name": "approved",
          "type": "bool"
        }
      ],
      "name": "setApprovalForAll",
      "outputs": [],
      "stateMutability": "nonpayable",
      "type": "function"
    },
    {
      "inputs": [
        {
          "internalType": "bytes32",
          "name": "_merkleRoot",
          "type": "bytes32"
        }
      ],
      "name": "setMerkleRoot",
      "outputs": [],
      "stateMutability": "nonpayable",
      "type": "function"
    },
    {
      "inputs": [
        {
          "internalType": "string",
          "name": "_placeholderTokenUri",
          "type": "string"
        }
      ],
      "name": "setPlaceHolderUri",
      "outputs": [],
      "stateMutability": "nonpayable",
      "type": "function"
    },
    {
      "inputs": [
        {
          "internalType": "uint256",
          "name": "_price",
          "type": "uint256"
        }
      ],
      "name": "setPublicMintPriceRoot",
      "outputs": [],
      "stateMutability": "nonpayable",
      "type": "function"
    },
    {
      "inputs": [
        {
          "internalType": "string",
          "name": "_baseTokenUri",
          "type": "string"
        }
      ],
      "name": "setTokenUri",
      "outputs": [],
      "stateMutability": "nonpayable",
      "type": "function"
    },
    {
      "inputs": [
        {
          "internalType": "uint256",
          "name": "_price",
          "type": "uint256"
        }
      ],
      "name": "setWhitelistMintPriceRoot",
      "outputs": [],
      "stateMutability": "nonpayable",
      "type": "function"
    },
    {
      "inputs": [
        {
          "internalType": "bytes4",
          "name": "interfaceId",
          "type": "bytes4"
        }
      ],
      "name": "supportsInterface",
      "outputs": [
        {
          "internalType": "bool",
          "name": "",
          "type": "bool"
        }
      ],
      "stateMutability": "view",
      "type": "function"
    },
    {
      "inputs": [],
      "name": "symbol",
      "outputs": [
        {
          "internalType": "string",
          "name": "",
          "type": "string"
        }
      ],
      "stateMutability": "view",
      "type": "function"
    },
    {
      "inputs": [],
      "name": "teamMint",
      "outputs": [],
      "stateMutability": "nonpayable",
      "type": "function"
    },
    {
      "inputs": [],
      "name": "teamMinted",
      "outputs": [
        {
          "internalType": "bool",
          "name": "",
          "type": "bool"
        }
      ],
      "stateMutability": "view",
      "type": "function"
    },
    {
      "inputs": [],
      "name": "togglePause",
      "outputs": [],
      "stateMutability": "nonpayable",
      "type": "function"
    },
    {
      "inputs": [],
      "name": "togglePublicSale",
      "outputs": [],
      "stateMutability": "nonpayable",
      "type": "function"
    },
    {
      "inputs": [],
      "name": "toggleReveal",
      "outputs": [],
      "stateMutability": "nonpayable",
      "type": "function"
    },
    {
      "inputs": [],
      "name": "toggleWhiteListSale",
      "outputs": [],
      "stateMutability": "nonpayable",
      "type": "function"
    },
    {
      "inputs": [
        {
          "internalType": "uint256",
          "name": "tokenId",
          "type": "uint256"
        }
      ],
      "name": "tokenURI",
      "outputs": [
        {
          "internalType": "string",
          "name": "",
          "type": "string"
        }
      ],
      "stateMutability": "view",
      "type": "function"
    },
    {
      "inputs": [
        {
          "internalType": "address",
          "name": "owner",
          "type": "address"
        }
      ],
      "name": "tokensOfOwner",
      "outputs": [
        {
          "internalType": "uint256[]",
          "name": "",
          "type": "uint256[]"
        }
      ],
      "stateMutability": "view",
      "type": "function"
    },
    {
      "inputs": [
        {
          "internalType": "address",
          "name": "",
          "type": "address"
        }
      ],
      "name": "totalPublicMint",
      "outputs": [
        {
          "internalType": "uint256",
          "name": "",
          "type": "uint256"
        }
      ],
      "stateMutability": "view",
      "type": "function"
    },
    {
      "inputs": [],
      "name": "totalSupply",
      "outputs": [
        {
          "internalType": "uint256",
          "name": "",
          "type": "uint256"
        }
      ],
      "stateMutability": "view",
      "type": "function"
    },
    {
      "inputs": [
        {
          "internalType": "address",
          "name": "",
          "type": "address"
        }
      ],
      "name": "totalWhitelistMint",
      "outputs": [
        {
          "internalType": "uint256",
          "name": "",
          "type": "uint256"
        }
      ],
      "stateMutability": "view",
      "type": "function"
    },
    {
      "inputs": [
        {
          "internalType": "address",
          "name": "from",
          "type": "address"
        },
        {
          "internalType": "address",
          "name": "to",
          "type": "address"
        },
        {
          "internalType": "uint256",
          "name": "tokenId",
          "type": "uint256"
        }
      ],
      "name": "transferFrom",
      "outputs": [],
      "stateMutability": "nonpayable",
      "type": "function"
    },
    {
      "inputs": [
        {
          "internalType": "address",
          "name": "newOwner",
          "type": "address"
        }
      ],
      "name": "transferOwnership",
      "outputs": [],
      "stateMutability": "nonpayable",
      "type": "function"
    },
    {
      "inputs": [],
      "name": "whiteListSale",
      "outputs": [
        {
          "internalType": "bool",
          "name": "",
          "type": "bool"
        }
      ],
      "stateMutability": "view",
      "type": "function"
    },
    {
      "inputs": [
        {
          "internalType": "bytes32[]",
          "name": "_merkleProof",
          "type": "bytes32[]"
        },
        {
          "internalType": "uint256",
          "name": "_quantity",
          "type": "uint256"
        }
      ],
      "name": "whitelistMint",
      "outputs": [],
      "stateMutability": "payable",
      "type": "function"
    },
    {
      "inputs": [],
      "name": "withdraw",
      "outputs": [],
      "stateMutability": "nonpayable",
      "type": "function"
    }
  ],
  "bytecode": "6080604052600a600955600a8055655af3107a4000600b556714d1120d7b160000600c556001600f60006101000a81548160ff0219169083151502179055503480156200004b57600080fd5b50733cc6cdda760b79bafa08df41ecfa224f810dceb660016040518060400160405280601581526020017f3132204b6e696768747320436f6c6c65637469766500000000000000000000008152506040518060400160405280600381526020017f544b4300000000000000000000000000000000000000000000000000000000008152508160029081620000e0919062000675565b508060039081620000f2919062000675565b50620001036200032860201b60201c565b600081905550505060006daaeb6d7670e522a718067333cd4e73ffffffffffffffffffffffffffffffffffffffff163b111562000300578015620001c6576daaeb6d7670e522a718067333cd4e73ffffffffffffffffffffffffffffffffffffffff16637d3e3dbe30846040518363ffffffff1660e01b81526004016200018c929190620007a1565b600060405180830381600087803b158015620001a757600080fd5b505af1158015620001bc573d6000803e3d6000fd5b50505050620002ff565b600073ffffffffffffffffffffffffffffffffffffffff168273ffffffffffffffffffffffffffffffffffffffff161462000280576daaeb6d7670e522a718067333cd4e73ffffffffffffffffffffffffffffffffffffffff1663a0af290330846040518363ffffffff1660e01b815260040162000246929190620007a1565b600060405180830381600087803b1580156200026157600080fd5b505af115801562000276573d6000803e3d6000fd5b50505050620002fe565b6daaeb6d7670e522a718067333cd4e73ffffffffffffffffffffffffffffffffffffffff16634420e486306040518263ffffffff1660e01b8152600401620002c99190620007ce565b600060405180830381600087803b158015620002e457600080fd5b505af1158015620002f9573d6000803e3d6000fd5b505050505b5b5b505062000322620003166200032d60201b60201c565b6200033560201b60201c565b620007eb565b600090565b600033905090565b6000600860009054906101000a900473ffffffffffffffffffffffffffffffffffffffff16905081600860006101000a81548173ffffffffffffffffffffffffffffffffffffffff021916908373ffffffffffffffffffffffffffffffffffffffff1602179055508173ffffffffffffffffffffffffffffffffffffffff168173ffffffffffffffffffffffffffffffffffffffff167f8be0079c531659141344cd1fd0a4f28419497f9722a3daafe3b4186f6b6457e060405160405180910390a35050565b600081519050919050565b7f4e487b7100000000000000000000000000000000000000000000000000000000600052604160045260246000fd5b7f4e487b7100000000000000000000000000000000000000000000000000000000600052602260045260246000fd5b600060028204905060018216806200047d57607f821691505b60208210810362000493576200049262000435565b5b50919050565b60008190508160005260206000209050919050565b60006020601f8301049050919050565b600082821b905092915050565b600060088302620004fd7fffffffffffffffffffffffffffffffffffffffffffffffffffffffffffffffff82620004be565b620005098683620004be565b95508019841693508086168417925050509392505050565b6000819050919050565b6000819050919050565b600062000556620005506200054a8462000521565b6200052b565b62000521565b9050919050565b6000819050919050565b620005728362000535565b6200058a62000581826200055d565b848454620004cb565b825550505050565b600090565b620005a162000592565b620005ae81848462000567565b505050565b5b81811015620005d657620005ca60008262000597565b600181019050620005b4565b5050565b601f8211156200062557620005ef8162000499565b620005fa84620004ae565b810160208510156200060a578190505b620006226200061985620004ae565b830182620005b3565b50505b505050565b600082821c905092915050565b60006200064a600019846008026200062a565b1980831691505092915050565b600062000665838362000637565b9150826002028217905092915050565b6200068082620003fb565b67ffffffffffffffff8111156200069c576200069b62000406565b5b620006a8825462000464565b620006b5828285620005da565b600060209050601f831160018114620006ed5760008415620006d8578287015190505b620006e4858262000657565b86555062000754565b601f198416620006fd8662000499565b60005b82811015620007275784890151825560018201915060208501945060208101905062000700565b8683101562000747578489015162000743601f89168262000637565b8355505b6001600288020188555050505b505050505050565b600073ffffffffffffffffffffffffffffffffffffffff82169050919050565b600062000789826200075c565b9050919050565b6200079b816200077c565b82525050565b6000604082019050620007b8600083018562000790565b620007c7602083018462000790565b9392505050565b6000602082019050620007e5600083018462000790565b92915050565b61536c80620007fb6000396000f3fe60806040526004361061027d5760003560e01c8063715018a61161014f578063b0962c53116100c1578063c4ae31681161007a578063c4ae316814610922578063c87b56dd14610939578063e222c7f914610976578063e8b5498d1461098d578063e985e9c5146109b8578063f2fde38b146109f55761027d565b8063b0962c531461083a578063b88d4fde14610863578063ba7a86b81461088c578063bc912e1a146108a3578063bf6c86b1146108ce578063c08dfd3c146108f75761027d565b80638bb64a8c116101135780638bb64a8c1461075f5780638da5cb5b1461077657806395d89b41146107a15780639c8474d4146107cc578063a0712d68146107f5578063a22cb465146108115761027d565b8063715018a61461068c5780637cb64759146106a35780638456cb59146106cc5780638462151c146106f757806386a173ee146107345761027d565b806332cb6b0c116101f357806354214f69116101ac57806354214f691461057a5780635b8ad429146105a55780636352211e146105bc57806365f13097146105f95780636be13c921461062457806370a082311461064f5761027d565b806332cb6b0c1461048e57806333bc1c5c146104b95780633ccfd60b146104e457806342842e0e146104fb57806349590657146105245780634cf5f7a41461054f5761027d565b8063081812fc11610245578063081812fc1461037b578063095ea7b3146103b857806318160ddd146103e15780631c16521c1461040c57806323b872dd146104495780632904e6d9146104725761027d565b806301ffc9a7146102825780630345e3cb146102bf5780630675b7c6146102fc57806306fdde031461032557806307e89ec014610350575b600080fd5b34801561028e57600080fd5b506102a960048036038101906102a49190613b5f565b610a1e565b6040516102b69190613ba7565b60405180910390f35b3480156102cb57600080fd5b506102e660048036038101906102e19190613c20565b610b00565b6040516102f39190613c66565b60405180910390f35b34801561030857600080fd5b50610323600480360381019061031e9190613dc7565b610b18565b005b34801561033157600080fd5b5061033a610ba7565b6040516103479190613e8f565b60405180910390f35b34801561035c57600080fd5b50610365610c39565b6040516103729190613c66565b60405180910390f35b34801561038757600080fd5b506103a2600480360381019061039d9190613edd565b610c3f565b6040516103af9190613f19565b60405180910390f35b3480156103c457600080fd5b506103df60048036038101906103da9190613f34565b610cbb565b005b3480156103ed57600080fd5b506103f6610dc5565b6040516104039190613c66565b60405180910390f35b34801561041857600080fd5b50610433600480360381019061042e9190613c20565b610ddc565b6040516104409190613c66565b60405180910390f35b34801561045557600080fd5b50610470600480360381019061046b9190613f74565b610df4565b005b61048c600480360381019061048791906140c5565b610fd6565b005b34801561049a57600080fd5b506104a36112a4565b6040516104b09190613c66565b60405180910390f35b3480156104c557600080fd5b506104ce6112a9565b6040516104db9190613ba7565b60405180910390f35b3480156104f057600080fd5b506104f96112bc565b005b34801561050757600080fd5b50610522600480360381019061051d9190613f74565b611395565b005b34801561053057600080fd5b50610539611577565b6040516105469190614130565b60405180910390f35b34801561055b57600080fd5b50610564611581565b6040516105719190613e8f565b60405180910390f35b34801561058657600080fd5b5061058f61160f565b60405161059c9190613ba7565b60405180910390f35b3480156105b157600080fd5b506105ba611622565b005b3480156105c857600080fd5b506105e360048036038101906105de9190613edd565b6116ca565b6040516105f09190613f19565b60405180910390f35b34801561060557600080fd5b5061060e6116e0565b60405161061b9190613c66565b60405180910390f35b34801561063057600080fd5b506106396116e6565b6040516106469190613f19565b60405180910390f35b34801561065b57600080fd5b5061067660048036038101906106719190613c20565b6116fe565b6040516106839190613c66565b60405180910390f35b34801561069857600080fd5b506106a16117cd565b005b3480156106af57600080fd5b506106ca60048036038101906106c5919061414b565b611855565b005b3480156106d857600080fd5b506106e16118db565b6040516106ee9190613ba7565b60405180910390f35b34801561070357600080fd5b5061071e60048036038101906107199190613c20565b6118ee565b60405161072b9190614236565b60405180910390f35b34801561074057600080fd5b50610749611ae9565b6040516107569190613ba7565b60405180910390f35b34801561076b57600080fd5b50610774611afc565b005b34801561078257600080fd5b5061078b611ba4565b6040516107989190613f19565b60405180910390f35b3480156107ad57600080fd5b506107b6611bce565b6040516107c39190613e8f565b60405180910390f35b3480156107d857600080fd5b506107f360048036038101906107ee9190613edd565b611c60565b005b61080f600480360381019061080a9190613edd565b611ce6565b005b34801561081d57600080fd5b5061083860048036038101906108339190614284565b611f3b565b005b34801561084657600080fd5b50610861600480360381019061085c9190613dc7565b6120b2565b005b34801561086f57600080fd5b5061088a60048036038101906108859190614365565b612141565b005b34801561089857600080fd5b506108a1612326565b005b3480156108af57600080fd5b506108b861241a565b6040516108c59190613c66565b60405180910390f35b3480156108da57600080fd5b506108f560048036038101906108f09190613edd565b612420565b005b34801561090357600080fd5b5061090c6124a6565b6040516109199190613c66565b60405180910390f35b34801561092e57600080fd5b506109376124ac565b005b34801561094557600080fd5b50610960600480360381019061095b9190613edd565b612554565b60405161096d9190613e8f565b60405180910390f35b34801561098257600080fd5b5061098b6126b6565b005b34801561099957600080fd5b506109a261275e565b6040516109af9190613ba7565b60405180910390f35b3480156109c457600080fd5b506109df60048036038101906109da91906143e8565b612771565b6040516109ec9190613ba7565b60405180910390f35b348015610a0157600080fd5b50610a1c6004803603810190610a179190613c20565b612805565b005b60007f80ac58cd000000000000000000000000000000000000000000000000000000007bffffffffffffffffffffffffffffffffffffffffffffffffffffffff1916827bffffffffffffffffffffffffffffffffffffffffffffffffffffffff19161480610ae957507f5b5e139f000000000000000000000000000000000000000000000000000000007bffffffffffffffffffffffffffffffffffffffffffffffffffffffff1916827bffffffffffffffffffffffffffffffffffffffffffffffffffffffff1916145b80610af95750610af8826128fc565b5b9050919050565b60126020528060005260406000206000915090505481565b610b20612966565b73ffffffffffffffffffffffffffffffffffffffff16610b3e611ba4565b73ffffffffffffffffffffffffffffffffffffffff1614610b94576040517f08c379a0000000000000000000000000000000000000000000000000000000008152600401610b8b90614474565b60405180910390fd5b80600d9081610ba391906146a0565b5050565b606060028054610bb6906144c3565b80601f0160208091040260200160405190810160405280929190818152602001828054610be2906144c3565b8015610c2f5780601f10610c0457610100808354040283529160200191610c2f565b820191906000526020600020905b815481529060010190602001808311610c1257829003601f168201915b5050505050905090565b600b5481565b6000610c4a8261296e565b610c80576040517fcf4700e400000000000000000000000000000000000000000000000000000000815260040160405180910390fd5b6006600083815260200190815260200160002060009054906101000a900473ffffffffffffffffffffffffffffffffffffffff169050919050565b6000610cc6826116ca565b90508073ffffffffffffffffffffffffffffffffffffffff168373ffffffffffffffffffffffffffffffffffffffff1603610d2d576040517f943f7b8c00000000000000000000000000000000000000000000000000000000815260040160405180910390fd5b8073ffffffffffffffffffffffffffffffffffffffff16610d4c612966565b73ffffffffffffffffffffffffffffffffffffffff1614158015610d7e5750610d7c81610d77612966565b612771565b155b15610db5576040517fcfb3b94200000000000000000000000000000000000000000000000000000000815260040160405180910390fd5b610dc08383836129bc565b505050565b6000610dcf612a6e565b6001546000540303905090565b60116020528060005260406000206000915090505481565b8260006daaeb6d7670e522a718067333cd4e73ffffffffffffffffffffffffffffffffffffffff163b1115610fc4573373ffffffffffffffffffffffffffffffffffffffff168173ffffffffffffffffffffffffffffffffffffffff1603610e6657610e61848484612a73565b610fd0565b6daaeb6d7670e522a718067333cd4e73ffffffffffffffffffffffffffffffffffffffff1663c617113430336040518363ffffffff1660e01b8152600401610eaf929190614772565b602060405180830381865afa158015610ecc573d6000803e3d6000fd5b505050506040513d601f19601f82011682018060405250810190610ef091906147b0565b8015610f8257506daaeb6d7670e522a718067333cd4e73ffffffffffffffffffffffffffffffffffffffff1663c617113430836040518363ffffffff1660e01b8152600401610f40929190614772565b602060405180830381865afa158015610f5d573d6000803e3d6000fd5b505050506040513d601f19601f82011682018060405250810190610f8191906147b0565b5b610fc357336040517fede71dcc000000000000000000000000000000000000000000000000000000008152600401610fba9190613f19565b60405180910390fd5b5b610fcf848484612a73565b5b50505050565b3373ffffffffffffffffffffffffffffffffffffffff163273ffffffffffffffffffffffffffffffffffffffff1614611044576040517f08c379a000000000000000000000000000000000000000000000000000000000815260040161103b9061484f565b60405180910390fd5b600f60029054906101000a900460ff16611093576040517f08c379a000000000000000000000000000000000000000000000000000000000815260040161108a906148e1565b60405180910390fd5b60788161109e610dc5565b6110a89190614930565b11156110e9576040517f08c379a00000000000000000000000000000000000000000000000000000000081526004016110e0906149d6565b60405180910390fd5b600a5481601260003373ffffffffffffffffffffffffffffffffffffffff1673ffffffffffffffffffffffffffffffffffffffff168152602001908152602001600020546111379190614930565b1115611178576040517f08c379a000000000000000000000000000000000000000000000000000000000815260040161116f90614a68565b60405180910390fd5b80600c546111869190614a88565b3410156111c8576040517f08c379a00000000000000000000000000000000000000000000000000000000081526004016111bf90614b3c565b60405180910390fd5b6000336040516020016111db9190614ba4565b6040516020818303038152906040528051906020012090506112008360105483612a83565b61123f576040517f08c379a000000000000000000000000000000000000000000000000000000000815260040161123690614c31565b60405180910390fd5b81601260003373ffffffffffffffffffffffffffffffffffffffff1673ffffffffffffffffffffffffffffffffffffffff168152602001908152602001600020600082825461128e9190614930565b9250508190555061129f3383612a9a565b505050565b607881565b600f60019054906101000a900460ff1681565b6112c4612966565b73ffffffffffffffffffffffffffffffffffffffff166112e2611ba4565b73ffffffffffffffffffffffffffffffffffffffff1614611338576040517f08c379a000000000000000000000000000000000000000000000000000000000815260040161132f90614474565b60405180910390fd5b73f7698ac96cd118f8f3a047a1236167bf3f15d06d73ffffffffffffffffffffffffffffffffffffffff166108fc479081150290604051600060405180830381858888f19350505050158015611392573d6000803e3d6000fd5b50565b8260006daaeb6d7670e522a718067333cd4e73ffffffffffffffffffffffffffffffffffffffff163b1115611565573373ffffffffffffffffffffffffffffffffffffffff168173ffffffffffffffffffffffffffffffffffffffff160361140757611402848484612ab8565b611571565b6daaeb6d7670e522a718067333cd4e73ffffffffffffffffffffffffffffffffffffffff1663c617113430336040518363ffffffff1660e01b8152600401611450929190614772565b602060405180830381865afa15801561146d573d6000803e3d6000fd5b505050506040513d601f19601f8201168201806040525081019061149191906147b0565b801561152357506daaeb6d7670e522a718067333cd4e73ffffffffffffffffffffffffffffffffffffffff1663c617113430836040518363ffffffff1660e01b81526004016114e1929190614772565b602060405180830381865afa1580156114fe573d6000803e3d6000fd5b505050506040513d601f19601f8201168201806040525081019061152291906147b0565b5b61156457336040517fede71dcc00000000000000000000000000000000000000000000000000000000815260040161155b9190613f19565b60405180910390fd5b5b611570848484612ab8565b5b50505050565b6000601054905090565b600e805461158e906144c3565b80601f01602080910402602001604051908101604052809291908181526020018280546115ba906144c3565b80156116075780601f106115dc57610100808354040283529160200191611607565b820191906000526020600020905b8154815290600101906020018083116115ea57829003601f168201915b505050505081565b600f60009054906101000a900460ff1681565b61162a612966565b73ffffffffffffffffffffffffffffffffffffffff16611648611ba4565b73ffffffffffffffffffffffffffffffffffffffff161461169e576040517f08c379a000000000000000000000000000000000000000000000000000000000815260040161169590614474565b60405180910390fd5b600f60009054906101000a900460ff1615600f60006101000a81548160ff021916908315150217905550565b60006116d582612ad8565b600001519050919050565b60095481565b73f7698ac96cd118f8f3a047a1236167bf3f15d06d81565b60008073ffffffffffffffffffffffffffffffffffffffff168273ffffffffffffffffffffffffffffffffffffffff1603611765576040517f8f4eb60400000000000000000000000000000000000000000000000000000000815260040160405180910390fd5b600560008373ffffffffffffffffffffffffffffffffffffffff1673ffffffffffffffffffffffffffffffffffffffff16815260200190815260200160002060000160009054906101000a900467ffffffffffffffff1667ffffffffffffffff169050919050565b6117d5612966565b73ffffffffffffffffffffffffffffffffffffffff166117f3611ba4565b73ffffffffffffffffffffffffffffffffffffffff1614611849576040517f08c379a000000000000000000000000000000000000000000000000000000000815260040161184090614474565b60405180910390fd5b6118536000612d67565b565b61185d612966565b73ffffffffffffffffffffffffffffffffffffffff1661187b611ba4565b73ffffffffffffffffffffffffffffffffffffffff16146118d1576040517f08c379a00000000000000000000000000000000000000000000000000000000081526004016118c890614474565b60405180910390fd5b8060108190555050565b600f60039054906101000a900460ff1681565b606060008060006118fe856116fe565b905060008167ffffffffffffffff81111561191c5761191b613c9c565b5b60405190808252806020026020018201604052801561194a5781602001602082028036833780820191505090505b509050611955613ab0565b600061195f612a6e565b90505b838614611adb57600460008281526020019081526020016000206040518060600160405290816000820160009054906101000a900473ffffffffffffffffffffffffffffffffffffffff1673ffffffffffffffffffffffffffffffffffffffff1673ffffffffffffffffffffffffffffffffffffffff1681526020016000820160149054906101000a900467ffffffffffffffff1667ffffffffffffffff1667ffffffffffffffff16815260200160008201601c9054906101000a900460ff16151515158152505091508160400151611ad057600073ffffffffffffffffffffffffffffffffffffffff16826000015173ffffffffffffffffffffffffffffffffffffffff1614611a7557816000015194505b8773ffffffffffffffffffffffffffffffffffffffff168573ffffffffffffffffffffffffffffffffffffffff1603611acf5780838780600101985081518110611ac257611ac1614c51565b5b6020026020010181815250505b5b806001019050611962565b508195505050505050919050565b600f60029054906101000a900460ff1681565b611b04612966565b73ffffffffffffffffffffffffffffffffffffffff16611b22611ba4565b73ffffffffffffffffffffffffffffffffffffffff1614611b78576040517f08c379a0000000000000000000000000000000000000000000000000000000008152600401611b6f90614474565b60405180910390fd5b600f60029054906101000a900460ff1615600f60026101000a81548160ff021916908315150217905550565b6000600860009054906101000a900473ffffffffffffffffffffffffffffffffffffffff16905090565b606060038054611bdd906144c3565b80601f0160208091040260200160405190810160405280929190818152602001828054611c09906144c3565b8015611c565780601f10611c2b57610100808354040283529160200191611c56565b820191906000526020600020905b815481529060010190602001808311611c3957829003601f168201915b5050505050905090565b611c68612966565b73ffffffffffffffffffffffffffffffffffffffff16611c86611ba4565b73ffffffffffffffffffffffffffffffffffffffff1614611cdc576040517f08c379a0000000000000000000000000000000000000000000000000000000008152600401611cd390614474565b60405180910390fd5b80600b8190555050565b3373ffffffffffffffffffffffffffffffffffffffff163273ffffffffffffffffffffffffffffffffffffffff1614611d54576040517f08c379a0000000000000000000000000000000000000000000000000000000008152600401611d4b9061484f565b60405180910390fd5b600f60019054906101000a900460ff16611da3576040517f08c379a0000000000000000000000000000000000000000000000000000000008152600401611d9a90614ccc565b60405180910390fd5b607881611dae610dc5565b611db89190614930565b1115611df9576040517f08c379a0000000000000000000000000000000000000000000000000000000008152600401611df090614d38565b60405180910390fd5b60095481601160003373ffffffffffffffffffffffffffffffffffffffff1673ffffffffffffffffffffffffffffffffffffffff16815260200190815260200160002054611e479190614930565b1115611e88576040517f08c379a0000000000000000000000000000000000000000000000000000000008152600401611e7f90614dca565b60405180910390fd5b80600b54611e969190614a88565b341015611ed8576040517f08c379a0000000000000000000000000000000000000000000000000000000008152600401611ecf90614e36565b60405180910390fd5b80601160003373ffffffffffffffffffffffffffffffffffffffff1673ffffffffffffffffffffffffffffffffffffffff1681526020019081526020016000206000828254611f279190614930565b92505081905550611f383382612a9a565b50565b611f43612966565b73ffffffffffffffffffffffffffffffffffffffff168273ffffffffffffffffffffffffffffffffffffffff1603611fa7576040517fb06307db00000000000000000000000000000000000000000000000000000000815260040160405180910390fd5b8060076000611fb4612966565b73ffffffffffffffffffffffffffffffffffffffff1673ffffffffffffffffffffffffffffffffffffffff16815260200190815260200160002060008473ffffffffffffffffffffffffffffffffffffffff1673ffffffffffffffffffffffffffffffffffffffff16815260200190815260200160002060006101000a81548160ff0219169083151502179055508173ffffffffffffffffffffffffffffffffffffffff16612061612966565b73ffffffffffffffffffffffffffffffffffffffff167f17307eab39ab6107e8899845ad3d59bd9653f200f220920489ca2b5937696c31836040516120a69190613ba7565b60405180910390a35050565b6120ba612966565b73ffffffffffffffffffffffffffffffffffffffff166120d8611ba4565b73ffffffffffffffffffffffffffffffffffffffff161461212e576040517f08c379a000000000000000000000000000000000000000000000000000000000815260040161212590614474565b60405180910390fd5b80600e908161213d91906146a0565b5050565b8360006daaeb6d7670e522a718067333cd4e73ffffffffffffffffffffffffffffffffffffffff163b1115612312573373ffffffffffffffffffffffffffffffffffffffff168173ffffffffffffffffffffffffffffffffffffffff16036121b4576121af85858585612e2d565b61231f565b6daaeb6d7670e522a718067333cd4e73ffffffffffffffffffffffffffffffffffffffff1663c617113430336040518363ffffffff1660e01b81526004016121fd929190614772565b602060405180830381865afa15801561221a573d6000803e3d6000fd5b505050506040513d601f19601f8201168201806040525081019061223e91906147b0565b80156122d057506daaeb6d7670e522a718067333cd4e73ffffffffffffffffffffffffffffffffffffffff1663c617113430836040518363ffffffff1660e01b815260040161228e929190614772565b602060405180830381865afa1580156122ab573d6000803e3d6000fd5b505050506040513d601f19601f820116820180604052508101906122cf91906147b0565b5b61231157336040517fede71dcc0000000000000000000000000000000000000000000000000000000081526004016123089190613f19565b60405180910390fd5b5b61231e85858585612e2d565b5b5050505050565b61232e612966565b73ffffffffffffffffffffffffffffffffffffffff1661234c611ba4565b73ffffffffffffffffffffffffffffffffffffffff16146123a2576040517f08c379a000000000000000000000000000000000000000000000000000000000815260040161239990614474565b60405180910390fd5b600f60049054906101000a900460ff16156123f2576040517f08c379a00000000000000000000000000000000000000000000000000000000081526004016123e990614ec8565b60405180910390fd5b6001600f60046101000a81548160ff021916908315150217905550612418336014612a9a565b565b600c5481565b612428612966565b73ffffffffffffffffffffffffffffffffffffffff16612446611ba4565b73ffffffffffffffffffffffffffffffffffffffff161461249c576040517f08c379a000000000000000000000000000000000000000000000000000000000815260040161249390614474565b60405180910390fd5b80600c8190555050565b600a5481565b6124b4612966565b73ffffffffffffffffffffffffffffffffffffffff166124d2611ba4565b73ffffffffffffffffffffffffffffffffffffffff1614612528576040517f08c379a000000000000000000000000000000000000000000000000000000000815260040161251f90614474565b60405180910390fd5b600f60039054906101000a900460ff1615600f60036101000a81548160ff021916908315150217905550565b606061255f8261296e565b61259e576040517f08c379a000000000000000000000000000000000000000000000000000000000815260040161259590614f5a565b60405180910390fd5b60006001836125ad9190614930565b9050600f60009054906101000a900460ff1661265657600e80546125d0906144c3565b80601f01602080910402602001604051908101604052809291908181526020018280546125fc906144c3565b80156126495780601f1061261e57610100808354040283529160200191612649565b820191906000526020600020905b81548152906001019060200180831161262c57829003601f168201915b50505050509150506126b1565b6000600d8054612665906144c3565b90501161268157604051806020016040528060008152506126ad565b600d61268c82612ea9565b60405160200161269d929190615085565b6040516020818303038152906040525b9150505b919050565b6126be612966565b73ffffffffffffffffffffffffffffffffffffffff166126dc611ba4565b73ffffffffffffffffffffffffffffffffffffffff1614612732576040517f08c379a000000000000000000000000000000000000000000000000000000000815260040161272990614474565b60405180910390fd5b600f60019054906101000a900460ff1615600f60016101000a81548160ff021916908315150217905550565b600f60049054906101000a900460ff1681565b6000600760008473ffffffffffffffffffffffffffffffffffffffff1673ffffffffffffffffffffffffffffffffffffffff16815260200190815260200160002060008373ffffffffffffffffffffffffffffffffffffffff1673ffffffffffffffffffffffffffffffffffffffff16815260200190815260200160002060009054906101000a900460ff16905092915050565b61280d612966565b73ffffffffffffffffffffffffffffffffffffffff1661282b611ba4565b73ffffffffffffffffffffffffffffffffffffffff1614612881576040517f08c379a000000000000000000000000000000000000000000000000000000000815260040161287890614474565b60405180910390fd5b600073ffffffffffffffffffffffffffffffffffffffff168173ffffffffffffffffffffffffffffffffffffffff16036128f0576040517f08c379a00000000000000000000000000000000000000000000000000000000081526004016128e790615126565b60405180910390fd5b6128f981612d67565b50565b60007f01ffc9a7000000000000000000000000000000000000000000000000000000007bffffffffffffffffffffffffffffffffffffffffffffffffffffffff1916827bffffffffffffffffffffffffffffffffffffffffffffffffffffffff1916149050919050565b600033905090565b600081612979612a6e565b11158015612988575060005482105b80156129b5575060046000838152602001908152602001600020600001601c9054906101000a900460ff16155b9050919050565b826006600084815260200190815260200160002060006101000a81548173ffffffffffffffffffffffffffffffffffffffff021916908373ffffffffffffffffffffffffffffffffffffffff160217905550818373ffffffffffffffffffffffffffffffffffffffff168273ffffffffffffffffffffffffffffffffffffffff167f8c5be1e5ebec7d5bd14f71427d1e84f3dd0314c0f7b2291e5b200ac8c7c3b92560405160405180910390a4505050565b600090565b612a7e838383613009565b505050565b600082612a9085846134bd565b1490509392505050565b612ab4828260405180602001604052806000815250613513565b5050565b612ad383838360405180602001604052806000815250612141565b505050565b612ae0613ab0565b600082905080612aee612a6e565b11158015612afd575060005481105b15612d30576000600460008381526020019081526020016000206040518060600160405290816000820160009054906101000a900473ffffffffffffffffffffffffffffffffffffffff1673ffffffffffffffffffffffffffffffffffffffff1673ffffffffffffffffffffffffffffffffffffffff1681526020016000820160149054906101000a900467ffffffffffffffff1667ffffffffffffffff1667ffffffffffffffff16815260200160008201601c9054906101000a900460ff16151515158152505090508060400151612d2e57600073ffffffffffffffffffffffffffffffffffffffff16816000015173ffffffffffffffffffffffffffffffffffffffff1614612c12578092505050612d62565b5b600115612d2d57818060019003925050600460008381526020019081526020016000206040518060600160405290816000820160009054906101000a900473ffffffffffffffffffffffffffffffffffffffff1673ffffffffffffffffffffffffffffffffffffffff1673ffffffffffffffffffffffffffffffffffffffff1681526020016000820160149054906101000a900467ffffffffffffffff1667ffffffffffffffff1667ffffffffffffffff16815260200160008201601c9054906101000a900460ff1615151515815250509050600073ffffffffffffffffffffffffffffffffffffffff16816000015173ffffffffffffffffffffffffffffffffffffffff1614612d28578092505050612d62565b612c13565b5b505b6040517fdf2d9b4200000000000000000000000000000000000000000000000000000000815260040160405180910390fd5b919050565b6000600860009054906101000a900473ffffffffffffffffffffffffffffffffffffffff16905081600860006101000a81548173ffffffffffffffffffffffffffffffffffffffff021916908373ffffffffffffffffffffffffffffffffffffffff1602179055508173ffffffffffffffffffffffffffffffffffffffff168173ffffffffffffffffffffffffffffffffffffffff167f8be0079c531659141344cd1fd0a4f28419497f9722a3daafe3b4186f6b6457e060405160405180910390a35050565b612e38848484613009565b612e578373ffffffffffffffffffffffffffffffffffffffff16613525565b8015612e6c5750612e6a84848484613548565b155b15612ea3576040517fd1a57ed600000000000000000000000000000000000000000000000000000000815260040160405180910390fd5b50505050565b606060008203612ef0576040518060400160405280600181526020017f30000000000000000000000000000000000000000000000000000000000000008152509050613004565b600082905060005b60008214612f22578080612f0b90615146565b915050600a82612f1b91906151bd565b9150612ef8565b60008167ffffffffffffffff811115612f3e57612f3d613c9c565b5b6040519080825280601f01601f191660200182016040528015612f705781602001600182028036833780820191505090505b5090505b60008514612ffd57600182612f8991906151ee565b9150600a85612f989190615222565b6030612fa49190614930565b60f81b818381518110612fba57612fb9614c51565b5b60200101907effffffffffffffffffffffffffffffffffffffffffffffffffffffffffffff1916908160001a905350600a85612ff691906151bd565b9450612f74565b8093505050505b919050565b600061301482612ad8565b90508373ffffffffffffffffffffffffffffffffffffffff16816000015173ffffffffffffffffffffffffffffffffffffffff161461307f576040517fa114810000000000000000000000000000000000000000000000000000000000815260040160405180910390fd5b60008473ffffffffffffffffffffffffffffffffffffffff166130a0612966565b73ffffffffffffffffffffffffffffffffffffffff1614806130cf57506130ce856130c9612966565b612771565b5b8061311457506130dd612966565b73ffffffffffffffffffffffffffffffffffffffff166130fc84610c3f565b73ffffffffffffffffffffffffffffffffffffffff16145b90508061314d576040517f59c896be00000000000000000000000000000000000000000000000000000000815260040160405180910390fd5b600073ffffffffffffffffffffffffffffffffffffffff168473ffffffffffffffffffffffffffffffffffffffff16036131b3576040517fea553b3400000000000000000000000000000000000000000000000000000000815260040160405180910390fd5b6131c08585856001613698565b6131cc600084876129bc565b6001600560008773ffffffffffffffffffffffffffffffffffffffff1673ffffffffffffffffffffffffffffffffffffffff16815260200190815260200160002060000160008282829054906101000a900467ffffffffffffffff160392506101000a81548167ffffffffffffffff021916908367ffffffffffffffff1602179055506001600560008673ffffffffffffffffffffffffffffffffffffffff1673ffffffffffffffffffffffffffffffffffffffff16815260200190815260200160002060000160008282829054906101000a900467ffffffffffffffff160192506101000a81548167ffffffffffffffff021916908367ffffffffffffffff1602179055506000600460008581526020019081526020016000209050848160000160006101000a81548173ffffffffffffffffffffffffffffffffffffffff021916908373ffffffffffffffffffffffffffffffffffffffff160217905550428160000160146101000a81548167ffffffffffffffff021916908367ffffffffffffffff16021790555060006001850190506000600460008381526020019081526020016000209050600073ffffffffffffffffffffffffffffffffffffffff168160000160009054906101000a900473ffffffffffffffffffffffffffffffffffffffff1673ffffffffffffffffffffffffffffffffffffffff160361344b57600054821461344a57878160000160006101000a81548173ffffffffffffffffffffffffffffffffffffffff021916908373ffffffffffffffffffffffffffffffffffffffff16021790555084602001518160000160146101000a81548167ffffffffffffffff021916908367ffffffffffffffff1602179055505b5b505050828473ffffffffffffffffffffffffffffffffffffffff168673ffffffffffffffffffffffffffffffffffffffff167fddf252ad1be2c89b69c2b068fc378daa952ba7f163c4a11628f55a4df523b3ef60405160405180910390a46134b6858585600161369e565b5050505050565b60008082905060005b8451811015613508576134f3828683815181106134e6576134e5614c51565b5b60200260200101516136a4565b9150808061350090615146565b9150506134c6565b508091505092915050565b61352083838360016136cf565b505050565b6000808273ffffffffffffffffffffffffffffffffffffffff163b119050919050565b60008373ffffffffffffffffffffffffffffffffffffffff1663150b7a0261356e612966565b8786866040518563ffffffff1660e01b815260040161359094939291906152a8565b6020604051808303816000875af19250505080156135cc57506040513d601f19601f820116820180604052508101906135c99190615309565b60015b613645573d80600081146135fc576040519150601f19603f3d011682016040523d82523d6000602084013e613601565b606091505b50600081510361363d576040517fd1a57ed600000000000000000000000000000000000000000000000000000000815260040160405180910390fd5b805181602001fd5b63150b7a0260e01b7bffffffffffffffffffffffffffffffffffffffffffffffffffffffff1916817bffffffffffffffffffffffffffffffffffffffffffffffffffffffff191614915050949350505050565b50505050565b50505050565b60008183106136bc576136b78284613a99565b6136c7565b6136c68383613a99565b5b905092915050565b600080549050600073ffffffffffffffffffffffffffffffffffffffff168573ffffffffffffffffffffffffffffffffffffffff160361373b576040517f2e07630000000000000000000000000000000000000000000000000000000000815260040160405180910390fd5b60008403613775576040517fb562e8dd00000000000000000000000000000000000000000000000000000000815260040160405180910390fd5b6137826000868387613698565b83600560008773ffffffffffffffffffffffffffffffffffffffff1673ffffffffffffffffffffffffffffffffffffffff16815260200190815260200160002060000160008282829054906101000a900467ffffffffffffffff160192506101000a81548167ffffffffffffffff021916908367ffffffffffffffff16021790555083600560008773ffffffffffffffffffffffffffffffffffffffff1673ffffffffffffffffffffffffffffffffffffffff16815260200190815260200160002060000160088282829054906101000a900467ffffffffffffffff160192506101000a81548167ffffffffffffffff021916908367ffffffffffffffff160217905550846004600083815260200190815260200160002060000160006101000a81548173ffffffffffffffffffffffffffffffffffffffff021916908373ffffffffffffffffffffffffffffffffffffffff160217905550426004600083815260200190815260200160002060000160146101000a81548167ffffffffffffffff021916908367ffffffffffffffff16021790555060008190506000858201905083801561394c575061394b8773ffffffffffffffffffffffffffffffffffffffff16613525565b5b15613a11575b818773ffffffffffffffffffffffffffffffffffffffff16600073ffffffffffffffffffffffffffffffffffffffff167fddf252ad1be2c89b69c2b068fc378daa952ba7f163c4a11628f55a4df523b3ef60405160405180910390a46139c16000888480600101955088613548565b6139f7576040517fd1a57ed600000000000000000000000000000000000000000000000000000000815260040160405180910390fd5b808203613952578260005414613a0c57600080fd5b613a7c565b5b818060010192508773ffffffffffffffffffffffffffffffffffffffff16600073ffffffffffffffffffffffffffffffffffffffff167fddf252ad1be2c89b69c2b068fc378daa952ba7f163c4a11628f55a4df523b3ef60405160405180910390a4808203613a12575b816000819055505050613a92600086838761369e565b5050505050565b600082600052816020526040600020905092915050565b6040518060600160405280600073ffffffffffffffffffffffffffffffffffffffff168152602001600067ffffffffffffffff1681526020016000151581525090565b6000604051905090565b600080fd5b600080fd5b60007fffffffff0000000000000000000000000000000000000000000000000000000082169050919050565b613b3c81613b07565b8114613b4757600080fd5b50565b600081359050613b5981613b33565b92915050565b600060208284031215613b7557613b74613afd565b5b6000613b8384828501613b4a565b91505092915050565b60008115159050919050565b613ba181613b8c565b82525050565b6000602082019050613bbc6000830184613b98565b92915050565b600073ffffffffffffffffffffffffffffffffffffffff82169050919050565b6000613bed82613bc2565b9050919050565b613bfd81613be2565b8114613c0857600080fd5b50565b600081359050613c1a81613bf4565b92915050565b600060208284031215613c3657613c35613afd565b5b6000613c4484828501613c0b565b91505092915050565b6000819050919050565b613c6081613c4d565b82525050565b6000602082019050613c7b6000830184613c57565b92915050565b600080fd5b600080fd5b6000601f19601f8301169050919050565b7f4e487b7100000000000000000000000000000000000000000000000000000000600052604160045260246000fd5b613cd482613c8b565b810181811067ffffffffffffffff82111715613cf357613cf2613c9c565b5b80604052505050565b6000613d06613af3565b9050613d128282613ccb565b919050565b600067ffffffffffffffff821115613d3257613d31613c9c565b5b613d3b82613c8b565b9050602081019050919050565b82818337600083830152505050565b6000613d6a613d6584613d17565b613cfc565b905082815260208101848484011115613d8657613d85613c86565b5b613d91848285613d48565b509392505050565b600082601f830112613dae57613dad613c81565b5b8135613dbe848260208601613d57565b91505092915050565b600060208284031215613ddd57613ddc613afd565b5b600082013567ffffffffffffffff811115613dfb57613dfa613b02565b5b613e0784828501613d99565b91505092915050565b600081519050919050565b600082825260208201905092915050565b60005b83811015613e4a578082015181840152602081019050613e2f565b60008484015250505050565b6000613e6182613e10565b613e6b8185613e1b565b9350613e7b818560208601613e2c565b613e8481613c8b565b840191505092915050565b60006020820190508181036000830152613ea98184613e56565b905092915050565b613eba81613c4d565b8114613ec557600080fd5b50565b600081359050613ed781613eb1565b92915050565b600060208284031215613ef357613ef2613afd565b5b6000613f0184828501613ec8565b91505092915050565b613f1381613be2565b82525050565b6000602082019050613f2e6000830184613f0a565b92915050565b60008060408385031215613f4b57613f4a613afd565b5b6000613f5985828601613c0b565b9250506020613f6a85828601613ec8565b9150509250929050565b600080600060608486031215613f8d57613f8c613afd565b5b6000613f9b86828701613c0b565b9350506020613fac86828701613c0b565b9250506040613fbd86828701613ec8565b9150509250925092565b600067ffffffffffffffff821115613fe257613fe1613c9c565b5b602082029050602081019050919050565b600080fd5b6000819050919050565b61400b81613ff8565b811461401657600080fd5b50565b60008135905061402881614002565b92915050565b600061404161403c84613fc7565b613cfc565b9050808382526020820190506020840283018581111561406457614063613ff3565b5b835b8181101561408d57806140798882614019565b845260208401935050602081019050614066565b5050509392505050565b600082601f8301126140ac576140ab613c81565b5b81356140bc84826020860161402e565b91505092915050565b600080604083850312156140dc576140db613afd565b5b600083013567ffffffffffffffff8111156140fa576140f9613b02565b5b61410685828601614097565b925050602061411785828601613ec8565b9150509250929050565b61412a81613ff8565b82525050565b60006020820190506141456000830184614121565b92915050565b60006020828403121561416157614160613afd565b5b600061416f84828501614019565b91505092915050565b600081519050919050565b600082825260208201905092915050565b6000819050602082019050919050565b6141ad81613c4d565b82525050565b60006141bf83836141a4565b60208301905092915050565b6000602082019050919050565b60006141e382614178565b6141ed8185614183565b93506141f883614194565b8060005b8381101561422957815161421088826141b3565b975061421b836141cb565b9250506001810190506141fc565b5085935050505092915050565b6000602082019050818103600083015261425081846141d8565b905092915050565b61426181613b8c565b811461426c57600080fd5b50565b60008135905061427e81614258565b92915050565b6000806040838503121561429b5761429a613afd565b5b60006142a985828601613c0b565b92505060206142ba8582860161426f565b9150509250929050565b600067ffffffffffffffff8211156142df576142de613c9c565b5b6142e882613c8b565b9050602081019050919050565b6000614308614303846142c4565b613cfc565b90508281526020810184848401111561432457614323613c86565b5b61432f848285613d48565b509392505050565b600082601f83011261434c5761434b613c81565b5b813561435c8482602086016142f5565b91505092915050565b6000806000806080858703121561437f5761437e613afd565b5b600061438d87828801613c0b565b945050602061439e87828801613c0b565b93505060406143af87828801613ec8565b925050606085013567ffffffffffffffff8111156143d0576143cf613b02565b5b6143dc87828801614337565b91505092959194509250565b600080604083850312156143ff576143fe613afd565b5b600061440d85828601613c0b565b925050602061441e85828601613c0b565b9150509250929050565b7f4f776e61626c653a2063616c6c6572206973206e6f7420746865206f776e6572600082015250565b600061445e602083613e1b565b915061446982614428565b602082019050919050565b6000602082019050818103600083015261448d81614451565b9050919050565b7f4e487b7100000000000000000000000000000000000000000000000000000000600052602260045260246000fd5b600060028204905060018216806144db57607f821691505b6020821081036144ee576144ed614494565b5b50919050565b60008190508160005260206000209050919050565b60006020601f8301049050919050565b600082821b905092915050565b6000600883026145567fffffffffffffffffffffffffffffffffffffffffffffffffffffffffffffffff82614519565b6145608683614519565b95508019841693508086168417925050509392505050565b6000819050919050565b600061459d61459861459384613c4d565b614578565b613c4d565b9050919050565b6000819050919050565b6145b783614582565b6145cb6145c3826145a4565b848454614526565b825550505050565b600090565b6145e06145d3565b6145eb8184846145ae565b505050565b5b8181101561460f576146046000826145d8565b6001810190506145f1565b5050565b601f82111561465457614625816144f4565b61462e84614509565b8101602085101561463d578190505b61465161464985614509565b8301826145f0565b50505b505050565b600082821c905092915050565b600061467760001984600802614659565b1980831691505092915050565b60006146908383614666565b9150826002028217905092915050565b6146a982613e10565b67ffffffffffffffff8111156146c2576146c1613c9c565b5b6146cc82546144c3565b6146d7828285614613565b600060209050601f83116001811461470a57600084156146f8578287015190505b6147028582614684565b86555061476a565b601f198416614718866144f4565b60005b828110156147405784890151825560018201915060208501945060208101905061471b565b8683101561475d5784890151614759601f891682614666565b8355505b6001600288020188555050505b505050505050565b60006040820190506147876000830185613f0a565b6147946020830184613f0a565b9392505050565b6000815190506147aa81614258565b92915050565b6000602082840312156147c6576147c5613afd565b5b60006147d48482850161479b565b91505092915050565b7f3132204b6e6967687473203a3a2043616e6e6f742062652063616c6c6564206260008201527f79206120636f6e74726163740000000000000000000000000000000000000000602082015250565b6000614839602c83613e1b565b9150614844826147dd565b604082019050919050565b600060208201905081810360008301526148688161482c565b9050919050565b7f3132204b6e6967687473203a3a204d696e74696e67206973206f6e205061757360008201527f6500000000000000000000000000000000000000000000000000000000000000602082015250565b60006148cb602183613e1b565b91506148d68261486f565b604082019050919050565b600060208201905081810360008301526148fa816148be565b9050919050565b7f4e487b7100000000000000000000000000000000000000000000000000000000600052601160045260246000fd5b600061493b82613c4d565b915061494683613c4d565b925082820190508082111561495e5761495d614901565b5b92915050565b7f3132204b6e6967687473203a3a2043616e6e6f74206d696e74206265796f6e6460008201527f206d617820737570706c79000000000000000000000000000000000000000000602082015250565b60006149c0602b83613e1b565b91506149cb82614964565b604082019050919050565b600060208201905081810360008301526149ef816149b3565b9050919050565b7f3132204b6e6967687473203a3a2043616e6e6f74206d696e74206265796f6e6460008201527f2077686974656c697374206d6178206d696e7421000000000000000000000000602082015250565b6000614a52603483613e1b565b9150614a5d826149f6565b604082019050919050565b60006020820190508181036000830152614a8181614a45565b9050919050565b6000614a9382613c4d565b9150614a9e83613c4d565b9250828202614aac81613c4d565b91508282048414831517614ac357614ac2614901565b5b5092915050565b7f3132204b6e6967687473203a3a205061796d656e742069732062656c6f77207460008201527f6865207072696365000000000000000000000000000000000000000000000000602082015250565b6000614b26602883613e1b565b9150614b3182614aca565b604082019050919050565b60006020820190508181036000830152614b5581614b19565b9050919050565b60008160601b9050919050565b6000614b7482614b5c565b9050919050565b6000614b8682614b69565b9050919050565b614b9e614b9982613be2565b614b7b565b82525050565b6000614bb08284614b8d565b60148201915081905092915050565b7f3132204b6e6967687473203a3a20596f7520617265206e6f742077686974656c60008201527f6973746564000000000000000000000000000000000000000000000000000000602082015250565b6000614c1b602583613e1b565b9150614c2682614bbf565b604082019050919050565b60006020820190508181036000830152614c4a81614c0e565b9050919050565b7f4e487b7100000000000000000000000000000000000000000000000000000000600052603260045260246000fd5b7f3132204b6e6967687473203a3a204e6f7420596574204163746976652e000000600082015250565b6000614cb6601d83613e1b565b9150614cc182614c80565b602082019050919050565b60006020820190508181036000830152614ce581614ca9565b9050919050565b7f3132204b6e69676874733a3a204265796f6e64204d617820537570706c790000600082015250565b6000614d22601e83613e1b565b9150614d2d82614cec565b602082019050919050565b60006020820190508181036000830152614d5181614d15565b9050919050565b7f3132204b6e6967687473203a3a20416c7265616479206d696e7465642031302060008201527f74696d6573210000000000000000000000000000000000000000000000000000602082015250565b6000614db4602683613e1b565b9150614dbf82614d58565b604082019050919050565b60006020820190508181036000830152614de381614da7565b9050919050565b7f3132204b6e6967687473203a3a2042656c6f7720000000000000000000000000600082015250565b6000614e20601483613e1b565b9150614e2b82614dea565b602082019050919050565b60006020820190508181036000830152614e4f81614e13565b9050919050565b7f3132204b6e6967687473203a3a205465616d20616c7265616479206d696e746560008201527f6400000000000000000000000000000000000000000000000000000000000000602082015250565b6000614eb2602183613e1b565b9150614ebd82614e56565b604082019050919050565b60006020820190508181036000830152614ee181614ea5565b9050919050565b7f4552433732314d657461646174613a2055524920717565727920666f72206e6f60008201527f6e6578697374656e7420746f6b656e0000000000000000000000000000000000602082015250565b6000614f44602f83613e1b565b9150614f4f82614ee8565b604082019050919050565b60006020820190508181036000830152614f7381614f37565b9050919050565b600081905092915050565b60008154614f92816144c3565b614f9c8186614f7a565b94506001821660008114614fb75760018114614fcc57614fff565b60ff1983168652811515820286019350614fff565b614fd5856144f4565b60005b83811015614ff757815481890152600182019150602081019050614fd8565b838801955050505b50505092915050565b600061501382613e10565b61501d8185614f7a565b935061502d818560208601613e2c565b80840191505092915050565b7f2e6a736f6e000000000000000000000000000000000000000000000000000000600082015250565b600061506f600583614f7a565b915061507a82615039565b600582019050919050565b60006150918285614f85565b915061509d8284615008565b91506150a882615062565b91508190509392505050565b7f4f776e61626c653a206e6577206f776e657220697320746865207a65726f206160008201527f6464726573730000000000000000000000000000000000000000000000000000602082015250565b6000615110602683613e1b565b915061511b826150b4565b604082019050919050565b6000602082019050818103600083015261513f81615103565b9050919050565b600061515182613c4d565b91507fffffffffffffffffffffffffffffffffffffffffffffffffffffffffffffffff820361518357615182614901565b5b600182019050919050565b7f4e487b7100000000000000000000000000000000000000000000000000000000600052601260045260246000fd5b60006151c882613c4d565b91506151d383613c4d565b9250826151e3576151e261518e565b5b828204905092915050565b60006151f982613c4d565b915061520483613c4d565b925082820390508181111561521c5761521b614901565b5b92915050565b600061522d82613c4d565b915061523883613c4d565b9250826152485761524761518e565b5b828206905092915050565b600081519050919050565b600082825260208201905092915050565b600061527a82615253565b615284818561525e565b9350615294818560208601613e2c565b61529d81613c8b565b840191505092915050565b60006080820190506152bd6000830187613f0a565b6152ca6020830186613f0a565b6152d76040830185613c57565b81810360608301526152e9818461526f565b905095945050505050565b60008151905061530381613b33565b92915050565b60006020828403121561531f5761531e613afd565b5b600061532d848285016152f4565b9150509291505056fea26469706673582212202fd400a1fef762fd17a1b7a8a5e1d7bea2aaa79e81292104a12fbb69cbdf9e0864736f6c63430008120033",
  "deployedBytecode": "58259:5204:0:-:0;;;;;;;;;;;;;;;;;;;;;;;;;;;;;;;;;;;;;;;;;;;;;;;;;;;;;;;;;;;;;;;;;;;;;;;;;;;;;;;;;;;;;;;;;;;;;;;;;;;;;;;;;;;;;;;;;;;;;;;;;;;;;;;;;;;;;;;;;;;;;;;;;;;;;;;;;;;;;;;;;;;;;;;;;;;;;;;;;;;;;;;;;;;;;;;;;;;;;;;;;;;;;;;;;;;;;;;;;;;;;;;;;;;;;;;;;;;;;;;;;;;;;;;;;;;;;;;;;;;;;;;;;;;;;;;;;;;;;;;;;;;;;;;;;;;;;;;;;;;;;;24444:305;;;;;;;;;;;;;;;;;;;;;;;:::i;:::-;;:::i;:::-;;;;;;;:::i;:::-;;;;;;;;59116:53;;;;;;;;;;;;;;;;;;;;;;;:::i;:::-;;:::i;:::-;;;;;;;:::i;:::-;;;;;;;;61625:115;;;;;;;;;;;;;;;;;;;;;;;:::i;:::-;;:::i;:::-;;27557:100;;;;;;;;;;;;;:::i;:::-;;;;;;;:::i;:::-;;;;;;;;58513:48;;;;;;;;;;;;;:::i;:::-;;;;;;;:::i;:::-;;;;;;;;29060:204;;;;;;;;;;;;;;;;;;;;;;;:::i;:::-;;:::i;:::-;;;;;;;:::i;:::-;;;;;;;;28623:371;;;;;;;;;;;;;;;;;;;;;;;:::i;:::-;;:::i;:::-;;23693:303;;;;;;;;;;;;;:::i;:::-;;;;;;;:::i;:::-;;;;;;;;59059:50;;;;;;;;;;;;;;;;;;;;;;;:::i;:::-;;:::i;:::-;;;;;;;:::i;:::-;;;;;;;;62874:163;;;;;;;;;;;;;;;;;;;;;;;:::i;:::-;;:::i;:::-;;59933:849;;;;;;;;;;;;;:::i;:::-;;:::i;:::-;;58377:40;;;;;;;;;;;;;:::i;:::-;;;;;;;:::i;:::-;;;;;;;;58908:22;;;;;;;;;;;;;:::i;:::-;;;;;;;:::i;:::-;;;;;;;;62727:142;;;;;;;;;;;;;:::i;:::-;;63045:171;;;;;;;;;;;;;;;;;;;;;;;:::i;:::-;;:::i;:::-;;62249:92;;;;;;;;;;;;;:::i;:::-;;;;;;;:::i;:::-;;;;;;;;58747:35;;;;;;;;;;;;;:::i;:::-;;;;;;;:::i;:::-;;;;;;;;58872:29;;;;;;;;;;;;;:::i;:::-;;;;;;;:::i;:::-;;;;;;;;62634:85;;;;;;;;;;;;;:::i;:::-;;27365:125;;;;;;;;;;;;;;;;;;;;;;;:::i;:::-;;:::i;:::-;;;;;;;:::i;:::-;;;;;;;;58424:36;;;;;;;;;;;;;:::i;:::-;;;;;;;:::i;:::-;;;;;;;;58625:79;;;;;;;;;;;;;:::i;:::-;;;;;;;:::i;:::-;;;;;;;;24813:206;;;;;;;;;;;;;;;;;;;;;;;:::i;:::-;;:::i;:::-;;;;;;;:::i;:::-;;;;;;;;51530:103;;;;;;;;;;;;;:::i;:::-;;61896:105;;;;;;;;;;;;;;;;;;;;;;;:::i;:::-;;:::i;:::-;;58969:17;;;;;;;;;;;;;:::i;:::-;;;;;;;:::i;:::-;;;;;;;;52890:882;;;;;;;;;;;;;;;;;;;;;;;:::i;:::-;;:::i;:::-;;;;;;;:::i;:::-;;;;;;;;58937:25;;;;;;;;;;;;;:::i;:::-;;;;;;;:::i;:::-;;;;;;;;62431:98;;;;;;;;;;;;;:::i;:::-;;50878:87;;;;;;;;;;;;;:::i;:::-;;;;;;;:::i;:::-;;;;;;;;27726:104;;;;;;;;;;;;;:::i;:::-;;;;;;;:::i;:::-;;;;;;;;62007:108;;;;;;;;;;;;;;;;;;;;;;;:::i;:::-;;:::i;:::-;;59392:533;;;;;;;;;;;;;:::i;:::-;;:::i;:::-;;29336:287;;;;;;;;;;;;;;;;;;;;;;;:::i;:::-;;:::i;:::-;;61746:142;;;;;;;;;;;;;;;;;;;;;;;:::i;:::-;;:::i;:::-;;63224:228;;;;;;;;;;;;;;;;;;;;;;;:::i;:::-;;:::i;:::-;;60793:178;;;;;;;;;;;;;:::i;:::-;;58568:48;;;;;;;;;;;;;:::i;:::-;;;;;;;:::i;:::-;;;;;;;;62123:114;;;;;;;;;;;;;;;;;;;;;;;:::i;:::-;;:::i;:::-;;58467:39;;;;;;;;;;;;;:::i;:::-;;;;;;;:::i;:::-;;;;;;;;62349:74;;;;;;;;;;;;;:::i;:::-;;61136:473;;;;;;;;;;;;;;;;;;;;;;;:::i;:::-;;:::i;:::-;;;;;;;:::i;:::-;;;;;;;;62537:89;;;;;;;;;;;;;:::i;:::-;;58993:22;;;;;;;;;;;;;:::i;:::-;;;;;;;:::i;:::-;;;;;;;;29694:164;;;;;;;;;;;;;;;;;;;;;;;:::i;:::-;;:::i;:::-;;;;;;;:::i;:::-;;;;;;;;51788:201;;;;;;;;;;;;;;;;;;;;;;;:::i;:::-;;:::i;:::-;;24444:305;24546:4;24598:25;24583:40;;;:11;:40;;;;:105;;;;24655:33;24640:48;;;:11;:48;;;;24583:105;:158;;;;24705:36;24729:11;24705:23;:36::i;:::-;24583:158;24563:178;;24444:305;;;:::o;59116:53::-;;;;;;;;;;;;;;;;;:::o;61625:115::-;51109:12;:10;:12::i;:::-;51098:23;;:7;:5;:7::i;:::-;:23;;;51090:69;;;;;;;;;;;;:::i;:::-;;;;;;;;;61719:13:::1;61704:12;:28;;;;;;:::i;:::-;;61625:115:::0;:::o;27557:100::-;27611:13;27644:5;27637:12;;;;;:::i;:::-;;;;;;;;;;;;;;;;;;;;;;;;;;;;;;;;;:::i;:::-;;;;;;;;;;;;;;;;;;;;;;;;;;;;;;;;;;;;;;;;;;;;;;;;;;;;;;;;;;;;;;;;;;;27557:100;:::o;58513:48::-;;;;:::o;29060:204::-;29128:7;29153:16;29161:7;29153;:16::i;:::-;29148:64;;29178:34;;;;;;;;;;;;;;29148:64;29232:15;:24;29248:7;29232:24;;;;;;;;;;;;;;;;;;;;;29225:31;;29060:204;;;:::o;28623:371::-;28696:13;28712:24;28728:7;28712:15;:24::i;:::-;28696:40;;28757:5;28751:11;;:2;:11;;;28747:48;;28771:24;;;;;;;;;;;;;;28747:48;28828:5;28812:21;;:12;:10;:12::i;:::-;:21;;;;:63;;;;;28838:37;28855:5;28862:12;:10;:12::i;:::-;28838:16;:37::i;:::-;28837:38;28812:63;28808:138;;;28899:35;;;;;;;;;;;;;;28808:138;28958:28;28967:2;28971:7;28980:5;28958:8;:28::i;:::-;28685:309;28623:371;;:::o;23693:303::-;23737:7;23962:15;:13;:15::i;:::-;23947:12;;23931:13;;:28;:46;23924:53;;23693:303;:::o;59059:50::-;;;;;;;;;;;;;;;;;:::o;62874:163::-;62975:4;57275:1;56089:42;57229:43;;;:47;57225:699;;;57516:10;57508:18;;:4;:18;;;57504:85;;62992:37:::1;63011:4;63017:2;63021:7;62992:18;:37::i;:::-;57567:7:::0;;57504:85;56089:42;57649:40;;;57698:4;57705:10;57649:67;;;;;;;;;;;;;;;;:::i;:::-;;;;;;;;;;;;;;;;;;;;;;;;;;;;;;;;;;;;;;;;;;;;;;;;;;:::i;:::-;:157;;;;;56089:42;57745:40;;;57794:4;57801;57745:61;;;;;;;;;;;;;;;;:::i;:::-;;;;;;;;;;;;;;;;;;;;;;;;;;;;;;;;;;;;;;;;;;;;;;;;;;:::i;:::-;57649:157;57603:310;;57886:10;57867:30;;;;;;;;;;;:::i;:::-;;;;;;;;57603:310;57225:699;62992:37:::1;63011:4;63017:2;63021:7;62992:18;:37::i;:::-;62874:163:::0;;;;;:::o;59933:849::-;59305:10;59292:23;;:9;:23;;;59284:80;;;;;;;;;;;;:::i;:::-;;;;;;;;;60054:13:::1;;;;;;;;;;;60046:59;;;;;;;;;;;;:::i;:::-;;;;;;;;;58414:3;60141:9;60125:13;:11;:13::i;:::-;:25;;;;:::i;:::-;60124:41;;60116:97;;;;;;;;;;;;:::i;:::-;;;;;;;;;60281:18;;60266:9;60233:18;:30;60252:10;60233:30;;;;;;;;;;;;;;;;:42;;;;:::i;:::-;60232:67;;60224:132;;;;;;;;;;;;:::i;:::-;;;;;;;;;60412:9;60389:20;;:32;;;;:::i;:::-;60375:9;:47;;60367:100;;;;;;;;;;;;:::i;:::-;;;;;;;;;60506:14;60550:10;60533:28;;;;;;;;:::i;:::-;;;;;;;;;;;;;60523:39;;;;;;60506:56;;60581:52;60600:12;60614:10;;60626:6;60581:18;:52::i;:::-;60573:102;;;;;;;;;;;;:::i;:::-;;;;;;;;;60722:9;60688:18;:30;60707:10;60688:30;;;;;;;;;;;;;;;;:43;;;;;;;:::i;:::-;;;;;;;;60742:32;60752:10;60764:9;60742;:32::i;:::-;60035:747;59933:849:::0;;:::o;58377:40::-;58414:3;58377:40;:::o;58908:22::-;;;;;;;;;;;;;:::o;62727:142::-;51109:12;:10;:12::i;:::-;51098:23;;:7;:5;:7::i;:::-;:23;;;51090:69;;;;;;;;;;;;:::i;:::-;;;;;;;;;58662:42:::1;62810:28;;:51;62839:21;62810:51;;;;;;;;;;;;;;;;;;;;;;;;;;;;;;::::0;::::1;;;;;;62727:142::o:0;63045:171::-;63150:4;57275:1;56089:42;57229:43;;;:47;57225:699;;;57516:10;57508:18;;:4;:18;;;57504:85;;63167:41:::1;63190:4;63196:2;63200:7;63167:22;:41::i;:::-;57567:7:::0;;57504:85;56089:42;57649:40;;;57698:4;57705:10;57649:67;;;;;;;;;;;;;;;;:::i;:::-;;;;;;;;;;;;;;;;;;;;;;;;;;;;;;;;;;;;;;;;;;;;;;;;;;:::i;:::-;:157;;;;;56089:42;57745:40;;;57794:4;57801;57745:61;;;;;;;;;;;;;;;;:::i;:::-;;;;;;;;;;;;;;;;;;;;;;;;;;;;;;;;;;;;;;;;;;;;;;;;;;:::i;:::-;57649:157;57603:310;;57886:10;57867:30;;;;;;;;;;;:::i;:::-;;;;;;;;57603:310;57225:699;63167:41:::1;63190:4;63196:2;63200:7;63167:22;:41::i;:::-;63045:171:::0;;;;;:::o;62249:92::-;62297:7;62323:10;;62316:17;;62249:92;:::o;58747:35::-;;;;;;;:::i;:::-;;;;;;;;;;;;;;;;;;;;;;;;;;;;;;;;;:::i;:::-;;;;;;;;;;;;;;;;;;;;;;;;;;;;;;;;;;;;;;;;;;;;;;;;;;;;;;;;;;;;;;;;;;:::o;58872:29::-;;;;;;;;;;;;;:::o;62634:85::-;51109:12;:10;:12::i;:::-;51098:23;;:7;:5;:7::i;:::-;:23;;;51090:69;;;;;;;;;;;;:::i;:::-;;;;;;;;;62701:10:::1;;;;;;;;;;;62700:11;62687:10;;:24;;;;;;;;;;;;;;;;;;62634:85::o:0;27365:125::-;27429:7;27456:21;27469:7;27456:12;:21::i;:::-;:26;;;27449:33;;27365:125;;;:::o;58424:36::-;;;;:::o;58625:79::-;58662:42;58625:79;:::o;24813:206::-;24877:7;24918:1;24901:19;;:5;:19;;;24897:60;;24929:28;;;;;;;;;;;;;;24897:60;24983:12;:19;24996:5;24983:19;;;;;;;;;;;;;;;:27;;;;;;;;;;;;24975:36;;24968:43;;24813:206;;;:::o;51530:103::-;51109:12;:10;:12::i;:::-;51098:23;;:7;:5;:7::i;:::-;:23;;;51090:69;;;;;;;;;;;;:::i;:::-;;;;;;;;;51595:30:::1;51622:1;51595:18;:30::i;:::-;51530:103::o:0;61896:105::-;51109:12;:10;:12::i;:::-;51098:23;;:7;:5;:7::i;:::-;:23;;;51090:69;;;;;;;;;;;;:::i;:::-;;;;;;;;;61982:11:::1;61969:10;:24;;;;61896:105:::0;:::o;58969:17::-;;;;;;;;;;;;;:::o;52890:882::-;52951:16;53005:19;53039:25;53079:22;53104:16;53114:5;53104:9;:16::i;:::-;53079:41;;53135:25;53177:14;53163:29;;;;;;;;:::i;:::-;;;;;;;;;;;;;;;;;;;;;;;;;;;;;;;;;;;;;;;;;53135:57;;53207:31;;:::i;:::-;53258:9;53270:15;:13;:15::i;:::-;53258:27;;53253:471;53302:14;53287:11;:29;53253:471;;53354:11;:14;53366:1;53354:14;;;;;;;;;;;53342:26;;;;;;;;;;;;;;;;;;;;;;;;;;;;;;;;;;;;;;;;;;;;;;;;;;;;;;;;;;;;;;;;;;;;;;;;;;53391:9;:16;;;53432:8;53387:73;53508:1;53482:28;;:9;:14;;;:28;;;53478:111;;53555:9;:14;;;53535:34;;53478:111;53632:5;53611:26;;:17;:26;;;53607:102;;53688:1;53662:8;53671:13;;;;;;53662:23;;;;;;;;:::i;:::-;;;;;;;:27;;;;;53607:102;53253:471;53318:3;;;;;53253:471;;;;53745:8;53738:15;;;;;;;52890:882;;;:::o;58937:25::-;;;;;;;;;;;;;:::o;62431:98::-;51109:12;:10;:12::i;:::-;51098:23;;:7;:5;:7::i;:::-;:23;;;51090:69;;;;;;;;;;;;:::i;:::-;;;;;;;;;62508:13:::1;;;;;;;;;;;62507:14;62491:13;;:30;;;;;;;;;;;;;;;;;;62431:98::o:0;50878:87::-;50924:7;50951:6;;;;;;;;;;;50944:13;;50878:87;:::o;27726:104::-;27782:13;27815:7;27808:14;;;;;:::i;:::-;;;;;;;;;;;;;;;;;;;;;;;;;;;;;;;;;:::i;:::-;;;;;;;;;;;;;;;;;;;;;;;;;;;;;;;;;;;;;;;;;;;;;;;;;;;;;;;;;;;;;;;;;;;27726:104;:::o;62007:108::-;51109:12;:10;:12::i;:::-;51098:23;;:7;:5;:7::i;:::-;:23;;;51090:69;;;;;;;;;;;;:::i;:::-;;;;;;;;;62101:6:::1;62081:17;:26;;;;62007:108:::0;:::o;59392:533::-;59305:10;59292:23;;:9;:23;;;59284:80;;;;;;;;;;;;:::i;:::-;;;;;;;;;59473:10:::1;;;;;;;;;;;59465:52;;;;;;;;;;;;:::i;:::-;;;;;;;;;58414:3;59553:9;59537:13;:11;:13::i;:::-;:25;;;;:::i;:::-;59536:41;;59528:84;;;;;;;;;;;;:::i;:::-;;;;;;;;;59675:15;;59661:9;59632:15;:27;59648:10;59632:27;;;;;;;;;;;;;;;;:38;;;;:::i;:::-;59631:59;;59623:110;;;;;;;;;;;;:::i;:::-;;;;;;;;;59786:9;59766:17;;:29;;;;:::i;:::-;59752:9;:44;;59744:77;;;;;;;;;;;;:::i;:::-;;;;;;;;;59865:9;59834:15;:27;59850:10;59834:27;;;;;;;;;;;;;;;;:40;;;;;;;:::i;:::-;;;;;;;;59885:32;59895:10;59907:9;59885;:32::i;:::-;59392:533:::0;:::o;29336:287::-;29447:12;:10;:12::i;:::-;29435:24;;:8;:24;;;29431:54;;29468:17;;;;;;;;;;;;;;29431:54;29543:8;29498:18;:32;29517:12;:10;:12::i;:::-;29498:32;;;;;;;;;;;;;;;:42;29531:8;29498:42;;;;;;;;;;;;;;;;:53;;;;;;;;;;;;;;;;;;29596:8;29567:48;;29582:12;:10;:12::i;:::-;29567:48;;;29606:8;29567:48;;;;;;:::i;:::-;;;;;;;;29336:287;;:::o;61746:142::-;51109:12;:10;:12::i;:::-;51098:23;;:7;:5;:7::i;:::-;:23;;;51090:69;;;;;;;;;;;;:::i;:::-;;;;;;;;;61860:20:::1;61838:19;:42;;;;;;:::i;:::-;;61746:142:::0;:::o;63224:228::-;63375:4;57275:1;56089:42;57229:43;;;:47;57225:699;;;57516:10;57508:18;;:4;:18;;;57504:85;;63397:47:::1;63420:4;63426:2;63430:7;63439:4;63397:22;:47::i;:::-;57567:7:::0;;57504:85;56089:42;57649:40;;;57698:4;57705:10;57649:67;;;;;;;;;;;;;;;;:::i;:::-;;;;;;;;;;;;;;;;;;;;;;;;;;;;;;;;;;;;;;;;;;;;;;;;;;:::i;:::-;:157;;;;;56089:42;57745:40;;;57794:4;57801;57745:61;;;;;;;;;;;;;;;;:::i;:::-;;;;;;;;;;;;;;;;;;;;;;;;;;;;;;;;;;;;;;;;;;;;;;;;;;:::i;:::-;57649:157;57603:310;;57886:10;57867:30;;;;;;;;;;;:::i;:::-;;;;;;;;57603:310;57225:699;63397:47:::1;63420:4;63426:2;63430:7;63439:4;63397:22;:47::i;:::-;63224:228:::0;;;;;;:::o;60793:178::-;51109:12;:10;:12::i;:::-;51098:23;;:7;:5;:7::i;:::-;:23;;;51090:69;;;;;;;;;;;;:::i;:::-;;;;;;;;;60851:10:::1;;;;;;;;;;;60850:11;60842:57;;;;;;;;;;;;:::i;:::-;;;;;;;;;60923:4;60910:10;;:17;;;;;;;;;;;;;;;;;;60938:25;60948:10;60960:2;60938:9;:25::i;:::-;60793:178::o:0;58568:48::-;;;;:::o;62123:114::-;51109:12;:10;:12::i;:::-;51098:23;;:7;:5;:7::i;:::-;:23;;;51090:69;;;;;;;;;;;;:::i;:::-;;;;;;;;;62223:6:::1;62200:20;:29;;;;62123:114:::0;:::o;58467:39::-;;;;:::o;62349:74::-;51109:12;:10;:12::i;:::-;51098:23;;:7;:5;:7::i;:::-;:23;;;51090:69;;;;;;;;;;;;:::i;:::-;;;;;;;;;62410:5:::1;;;;;;;;;;;62409:6;62401:5;;:14;;;;;;;;;;;;;;;;;;62349:74::o:0;61136:473::-;61209:13;61243:16;61251:7;61243;:16::i;:::-;61235:76;;;;;;;;;;;;:::i;:::-;;;;;;;;;61324:14;61351:1;61341:7;:11;;;;:::i;:::-;61324:28;;61369:10;;;;;;;;;;;61365:68;;61402:19;61395:26;;;;;:::i;:::-;;;;;;;;;;;;;;;;;;;;;;;;;;;;;;;;;:::i;:::-;;;;;;;;;;;;;;;;;;;;;;;;;;;;;;;;;;;;;;;;;;;;;;;;;;;;;;;;;;;;;;;;;;;;;;61365:68;61526:1;61503:12;61497:26;;;;;:::i;:::-;;;:30;:104;;;;;;;;;;;;;;;;;61554:12;61568:17;:6;:15;:17::i;:::-;61537:58;;;;;;;;;:::i;:::-;;;;;;;;;;;;;61497:104;61490:111;;;61136:473;;;;:::o;62537:89::-;51109:12;:10;:12::i;:::-;51098:23;;:7;:5;:7::i;:::-;:23;;;51090:69;;;;;;;;;;;;:::i;:::-;;;;;;;;;62608:10:::1;;;;;;;;;;;62607:11;62594:10;;:24;;;;;;;;;;;;;;;;;;62537:89::o:0;58993:22::-;;;;;;;;;;;;;:::o;29694:164::-;29791:4;29815:18;:25;29834:5;29815:25;;;;;;;;;;;;;;;:35;29841:8;29815:35;;;;;;;;;;;;;;;;;;;;;;;;;29808:42;;29694:164;;;;:::o;51788:201::-;51109:12;:10;:12::i;:::-;51098:23;;:7;:5;:7::i;:::-;:23;;;51090:69;;;;;;;;;;;;:::i;:::-;;;;;;;;;51897:1:::1;51877:22;;:8;:22;;::::0;51869:73:::1;;;;;;;;;;;;:::i;:::-;;;;;;;;;51953:28;51972:8;51953:18;:28::i;:::-;51788:201:::0;:::o;14366:157::-;14451:4;14490:25;14475:40;;;:11;:40;;;;14468:47;;14366:157;;;:::o;2836:98::-;2889:7;2916:10;2909:17;;2836:98;:::o;31046:187::-;31103:4;31146:7;31127:15;:13;:15::i;:::-;:26;;:53;;;;;31167:13;;31157:7;:23;31127:53;:98;;;;;31198:11;:20;31210:7;31198:20;;;;;;;;;;;:27;;;;;;;;;;;;31197:28;31127:98;31120:105;;31046:187;;;:::o;39216:196::-;39358:2;39331:15;:24;39347:7;39331:24;;;;;;;;;;;;:29;;;;;;;;;;;;;;;;;;39396:7;39392:2;39376:28;;39385:5;39376:28;;;;;;;;;;;;39216:196;;;:::o;23467:92::-;23523:7;23467:92;:::o;29925:170::-;30059:28;30069:4;30075:2;30079:7;30059:9;:28::i;:::-;29925:170;;;:::o;42962:190::-;43087:4;43140;43111:25;43124:5;43131:4;43111:12;:25::i;:::-;:33;43104:40;;42962:190;;;;;:::o;31241:104::-;31310:27;31320:2;31324:8;31310:27;;;;;;;;;;;;:9;:27::i;:::-;31241:104;;:::o;30166:185::-;30304:39;30321:4;30327:2;30331:7;30304:39;;;;;;;;;;;;:16;:39::i;:::-;30166:185;;;:::o;26194:1109::-;26256:21;;:::i;:::-;26290:12;26305:7;26290:22;;26373:4;26354:15;:13;:15::i;:::-;:23;;:47;;;;;26388:13;;26381:4;:20;26354:47;26350:886;;;26422:31;26456:11;:17;26468:4;26456:17;;;;;;;;;;;26422:51;;;;;;;;;;;;;;;;;;;;;;;;;;;;;;;;;;;;;;;;;;;;;;;;;;;;;;;;;;;;;;;;;;;;;;;;;;26497:9;:16;;;26492:729;;26568:1;26542:28;;:9;:14;;;:28;;;26538:101;;26606:9;26599:16;;;;;;26538:101;26941:261;26948:4;26941:261;;;26981:6;;;;;;;;27026:11;:17;27038:4;27026:17;;;;;;;;;;;27014:29;;;;;;;;;;;;;;;;;;;;;;;;;;;;;;;;;;;;;;;;;;;;;;;;;;;;;;;;;;;;;;;;;;;;;;;;;;27100:1;27074:28;;:9;:14;;;:28;;;27070:109;;27142:9;27135:16;;;;;;27070:109;26941:261;;;26492:729;26403:833;26350:886;27264:31;;;;;;;;;;;;;;26194:1109;;;;:::o;52149:191::-;52223:16;52242:6;;;;;;;;;;;52223:25;;52268:8;52259:6;;:17;;;;;;;;;;;;;;;;;;52323:8;52292:40;;52313:8;52292:40;;;;;;;;;;;;52212:128;52149:191;:::o;30422:369::-;30589:28;30599:4;30605:2;30609:7;30589:9;:28::i;:::-;30632:15;:2;:13;;;:15::i;:::-;:76;;;;;30652:56;30683:4;30689:2;30693:7;30702:5;30652:30;:56::i;:::-;30651:57;30632:76;30628:156;;;30732:40;;;;;;;;;;;;;;30628:156;30422:369;;;;:::o;398:723::-;454:13;684:1;675:5;:10;671:53;;702:10;;;;;;;;;;;;;;;;;;;;;671:53;734:12;749:5;734:20;;765:14;790:78;805:1;797:4;:9;790:78;;823:8;;;;;:::i;:::-;;;;854:2;846:10;;;;;:::i;:::-;;;790:78;;;878:19;910:6;900:17;;;;;;;;:::i;:::-;;;;;;;;;;;;;;;;;;;;;;;;;;;;;;;;;;;;;;;;;;;;878:39;;928:154;944:1;935:5;:10;928:154;;972:1;962:11;;;;;:::i;:::-;;;1039:2;1031:5;:10;;;;:::i;:::-;1018:2;:24;;;;:::i;:::-;1005:39;;988:6;995;988:14;;;;;;;;:::i;:::-;;;;;:56;;;;;;;;;;;1068:2;1059:11;;;;;:::i;:::-;;;928:154;;;1106:6;1092:21;;;;;398:723;;;;:::o;34159:2130::-;34274:35;34312:21;34325:7;34312:12;:21::i;:::-;34274:59;;34372:4;34350:26;;:13;:18;;;:26;;;34346:67;;34385:28;;;;;;;;;;;;;;34346:67;34426:22;34468:4;34452:20;;:12;:10;:12::i;:::-;:20;;;:73;;;;34489:36;34506:4;34512:12;:10;:12::i;:::-;34489:16;:36::i;:::-;34452:73;:126;;;;34566:12;:10;:12::i;:::-;34542:36;;:20;34554:7;34542:11;:20::i;:::-;:36;;;34452:126;34426:153;;34597:17;34592:66;;34623:35;;;;;;;;;;;;;;34592:66;34687:1;34673:16;;:2;:16;;;34669:52;;34698:23;;;;;;;;;;;;;;34669:52;34734:43;34756:4;34762:2;34766:7;34775:1;34734:21;:43::i;:::-;34842:35;34859:1;34863:7;34872:4;34842:8;:35::i;:::-;35203:1;35173:12;:18;35186:4;35173:18;;;;;;;;;;;;;;;:26;;;:31;;;;;;;;;;;;;;;;;;;;;;;;;;;;;;;;;35247:1;35219:12;:16;35232:2;35219:16;;;;;;;;;;;;;;;:24;;;:29;;;;;;;;;;;;;;;;;;;;;;;;;;;;;;;;;35265:31;35299:11;:20;35311:7;35299:20;;;;;;;;;;;35265:54;;35350:2;35334:8;:13;;;:18;;;;;;;;;;;;;;;;;;35400:15;35367:8;:23;;;:49;;;;;;;;;;;;;;;;;;35668:19;35700:1;35690:7;:11;35668:33;;35716:31;35750:11;:24;35762:11;35750:24;;;;;;;;;;;35716:58;;35818:1;35793:27;;:8;:13;;;;;;;;;;;;:27;;;35789:384;;36003:13;;35988:11;:28;35984:174;;36057:4;36041:8;:13;;;:20;;;;;;;;;;;;;;;;;;36110:13;:28;;;36084:8;:23;;;:54;;;;;;;;;;;;;;;;;;35984:174;35789:384;35148:1036;;;36220:7;36216:2;36201:27;;36210:4;36201:27;;;;;;;;;;;;36239:42;36260:4;36266:2;36270:7;36279:1;36239:20;:42::i;:::-;34263:2026;;34159:2130;;;:::o;43829:296::-;43912:7;43932:20;43955:4;43932:27;;43975:9;43970:118;43994:5;:12;43990:1;:16;43970:118;;;44043:33;44053:12;44067:5;44073:1;44067:8;;;;;;;;:::i;:::-;;;;;;;;44043:9;:33::i;:::-;44028:48;;44008:3;;;;;:::i;:::-;;;;43970:118;;;;44105:12;44098:19;;;43829:296;;;;:::o;31708:163::-;31831:32;31837:2;31841:8;31851:5;31858:4;31831:5;:32::i;:::-;31708:163;;;:::o;4283:326::-;4343:4;4600:1;4578:7;:19;;;:23;4571:30;;4283:326;;;:::o;39904:667::-;40067:4;40104:2;40088:36;;;40125:12;:10;:12::i;:::-;40139:4;40145:7;40154:5;40088:72;;;;;;;;;;;;;;;;;;:::i;:::-;;;;;;;;;;;;;;;;;;;;;;;;;;;;;;;;;;;;;;;;;;;:::i;:::-;;;40084:480;;;;;;;;;;;;;;;;;;;;;;;;;;;;;;;;;;;;;;;;40339:1;40322:6;:13;:18;40318:235;;40368:40;;;;;;;;;;;;;;40318:235;40511:6;40505:13;40496:6;40492:2;40488:15;40481:38;40084:480;40217:45;;;40207:55;;;:6;:55;;;;40200:62;;;39904:667;;;;;;:::o;41219:159::-;;;;;:::o;42037:158::-;;;;;:::o;50036:149::-;50099:7;50130:1;50126;:5;:51;;50157:20;50172:1;50175;50157:14;:20::i;:::-;50126:51;;;50134:20;50149:1;50152;50134:14;:20::i;:::-;50126:51;50119:58;;50036:149;;;;:::o;32130:1775::-;32269:20;32292:13;;32269:36;;32334:1;32320:16;;:2;:16;;;32316:48;;32345:19;;;;;;;;;;;;;;32316:48;32391:1;32379:8;:13;32375:44;;32401:18;;;;;;;;;;;;;;32375:44;32432:61;32462:1;32466:2;32470:12;32484:8;32432:21;:61::i;:::-;32805:8;32770:12;:16;32783:2;32770:16;;;;;;;;;;;;;;;:24;;;:44;;;;;;;;;;;;;;;;;;;;;;;;;;;;;;;;;32869:8;32829:12;:16;32842:2;32829:16;;;;;;;;;;;;;;;:29;;;:49;;;;;;;;;;;;;;;;;;;;;;;;;;;;;;;;;32928:2;32895:11;:25;32907:12;32895:25;;;;;;;;;;;:30;;;:35;;;;;;;;;;;;;;;;;;32995:15;32945:11;:25;32957:12;32945:25;;;;;;;;;;;:40;;;:66;;;;;;;;;;;;;;;;;;33028:20;33051:12;33028:35;;33078:11;33107:8;33092:12;:23;33078:37;;33136:4;:23;;;;;33144:15;:2;:13;;;:15::i;:::-;33136:23;33132:641;;;33180:314;33236:12;33232:2;33211:38;;33228:1;33211:38;;;;;;;;;;;;33277:69;33316:1;33320:2;33324:14;;;;;;33340:5;33277:30;:69::i;:::-;33272:174;;33382:40;;;;;;;;;;;;;;33272:174;33489:3;33473:12;:19;33180:314;;33575:12;33558:13;;:29;33554:43;;33589:8;;;33554:43;33132:641;;;33638:120;33694:14;;;;;;33690:2;33669:40;;33686:1;33669:40;;;;;;;;;;;;33753:3;33737:12;:19;33638:120;;33132:641;33803:12;33787:13;:28;;;;32745:1082;;33837:60;33866:1;33870:2;33874:12;33888:8;33837:20;:60::i;:::-;32258:1647;32130:1775;;;;:::o;50193:268::-;50261:13;50368:1;50362:4;50355:15;50397:1;50391:4;50384:15;50438:4;50432;50422:21;50413:30;;50193:268;;;;:::o;-1:-1:-1:-;;;;;;;;;;;;;;;;;;;;;;;;;;;;;;:::o;7:75:1:-;40:6;73:2;67:9;57:19;;7:75;:::o;88:117::-;197:1;194;187:12;211:117;320:1;317;310:12;334:149;370:7;410:66;403:5;399:78;388:89;;334:149;;;:::o;489:120::-;561:23;578:5;561:23;:::i;:::-;554:5;551:34;541:62;;599:1;596;589:12;541:62;489:120;:::o;615:137::-;660:5;698:6;685:20;676:29;;714:32;740:5;714:32;:::i;:::-;615:137;;;;:::o;758:327::-;816:6;865:2;853:9;844:7;840:23;836:32;833:119;;;871:79;;:::i;:::-;833:119;991:1;1016:52;1060:7;1051:6;1040:9;1036:22;1016:52;:::i;:::-;1006:62;;962:116;758:327;;;;:::o;1091:90::-;1125:7;1168:5;1161:13;1154:21;1143:32;;1091:90;;;:::o;1187:109::-;1268:21;1283:5;1268:21;:::i;:::-;1263:3;1256:34;1187:109;;:::o;1302:210::-;1389:4;1427:2;1416:9;1412:18;1404:26;;1440:65;1502:1;1491:9;1487:17;1478:6;1440:65;:::i;:::-;1302:210;;;;:::o;1518:126::-;1555:7;1595:42;1588:5;1584:54;1573:65;;1518:126;;;:::o;1650:96::-;1687:7;1716:24;1734:5;1716:24;:::i;:::-;1705:35;;1650:96;;;:::o;1752:122::-;1825:24;1843:5;1825:24;:::i;:::-;1818:5;1815:35;1805:63;;1864:1;1861;1854:12;1805:63;1752:122;:::o;1880:139::-;1926:5;1964:6;1951:20;1942:29;;1980:33;2007:5;1980:33;:::i;:::-;1880:139;;;;:::o;2025:329::-;2084:6;2133:2;2121:9;2112:7;2108:23;2104:32;2101:119;;;2139:79;;:::i;:::-;2101:119;2259:1;2284:53;2329:7;2320:6;2309:9;2305:22;2284:53;:::i;:::-;2274:63;;2230:117;2025:329;;;;:::o;2360:77::-;2397:7;2426:5;2415:16;;2360:77;;;:::o;2443:118::-;2530:24;2548:5;2530:24;:::i;:::-;2525:3;2518:37;2443:118;;:::o;2567:222::-;2660:4;2698:2;2687:9;2683:18;2675:26;;2711:71;2779:1;2768:9;2764:17;2755:6;2711:71;:::i;:::-;2567:222;;;;:::o;2795:117::-;2904:1;2901;2894:12;2918:117;3027:1;3024;3017:12;3041:102;3082:6;3133:2;3129:7;3124:2;3117:5;3113:14;3109:28;3099:38;;3041:102;;;:::o;3149:180::-;3197:77;3194:1;3187:88;3294:4;3291:1;3284:15;3318:4;3315:1;3308:15;3335:281;3418:27;3440:4;3418:27;:::i;:::-;3410:6;3406:40;3548:6;3536:10;3533:22;3512:18;3500:10;3497:34;3494:62;3491:88;;;3559:18;;:::i;:::-;3491:88;3599:10;3595:2;3588:22;3378:238;3335:281;;:::o;3622:129::-;3656:6;3683:20;;:::i;:::-;3673:30;;3712:33;3740:4;3732:6;3712:33;:::i;:::-;3622:129;;;:::o;3757:308::-;3819:4;3909:18;3901:6;3898:30;3895:56;;;3931:18;;:::i;:::-;3895:56;3969:29;3991:6;3969:29;:::i;:::-;3961:37;;4053:4;4047;4043:15;4035:23;;3757:308;;;:::o;4071:146::-;4168:6;4163:3;4158;4145:30;4209:1;4200:6;4195:3;4191:16;4184:27;4071:146;;;:::o;4223:425::-;4301:5;4326:66;4342:49;4384:6;4342:49;:::i;:::-;4326:66;:::i;:::-;4317:75;;4415:6;4408:5;4401:21;4453:4;4446:5;4442:16;4491:3;4482:6;4477:3;4473:16;4470:25;4467:112;;;4498:79;;:::i;:::-;4467:112;4588:54;4635:6;4630:3;4625;4588:54;:::i;:::-;4307:341;4223:425;;;;;:::o;4668:340::-;4724:5;4773:3;4766:4;4758:6;4754:17;4750:27;4740:122;;4781:79;;:::i;:::-;4740:122;4898:6;4885:20;4923:79;4998:3;4990:6;4983:4;4975:6;4971:17;4923:79;:::i;:::-;4914:88;;4730:278;4668:340;;;;:::o;5014:509::-;5083:6;5132:2;5120:9;5111:7;5107:23;5103:32;5100:119;;;5138:79;;:::i;:::-;5100:119;5286:1;5275:9;5271:17;5258:31;5316:18;5308:6;5305:30;5302:117;;;5338:79;;:::i;:::-;5302:117;5443:63;5498:7;5489:6;5478:9;5474:22;5443:63;:::i;:::-;5433:73;;5229:287;5014:509;;;;:::o;5529:99::-;5581:6;5615:5;5609:12;5599:22;;5529:99;;;:::o;5634:169::-;5718:11;5752:6;5747:3;5740:19;5792:4;5787:3;5783:14;5768:29;;5634:169;;;;:::o;5809:246::-;5890:1;5900:113;5914:6;5911:1;5908:13;5900:113;;;5999:1;5994:3;5990:11;5984:18;5980:1;5975:3;5971:11;5964:39;5936:2;5933:1;5929:10;5924:15;;5900:113;;;6047:1;6038:6;6033:3;6029:16;6022:27;5871:184;5809:246;;;:::o;6061:377::-;6149:3;6177:39;6210:5;6177:39;:::i;:::-;6232:71;6296:6;6291:3;6232:71;:::i;:::-;6225:78;;6312:65;6370:6;6365:3;6358:4;6351:5;6347:16;6312:65;:::i;:::-;6402:29;6424:6;6402:29;:::i;:::-;6397:3;6393:39;6386:46;;6153:285;6061:377;;;;:::o;6444:313::-;6557:4;6595:2;6584:9;6580:18;6572:26;;6644:9;6638:4;6634:20;6630:1;6619:9;6615:17;6608:47;6672:78;6745:4;6736:6;6672:78;:::i;:::-;6664:86;;6444:313;;;;:::o;6763:122::-;6836:24;6854:5;6836:24;:::i;:::-;6829:5;6826:35;6816:63;;6875:1;6872;6865:12;6816:63;6763:122;:::o;6891:139::-;6937:5;6975:6;6962:20;6953:29;;6991:33;7018:5;6991:33;:::i;:::-;6891:139;;;;:::o;7036:329::-;7095:6;7144:2;7132:9;7123:7;7119:23;7115:32;7112:119;;;7150:79;;:::i;:::-;7112:119;7270:1;7295:53;7340:7;7331:6;7320:9;7316:22;7295:53;:::i;:::-;7285:63;;7241:117;7036:329;;;;:::o;7371:118::-;7458:24;7476:5;7458:24;:::i;:::-;7453:3;7446:37;7371:118;;:::o;7495:222::-;7588:4;7626:2;7615:9;7611:18;7603:26;;7639:71;7707:1;7696:9;7692:17;7683:6;7639:71;:::i;:::-;7495:222;;;;:::o;7723:474::-;7791:6;7799;7848:2;7836:9;7827:7;7823:23;7819:32;7816:119;;;7854:79;;:::i;:::-;7816:119;7974:1;7999:53;8044:7;8035:6;8024:9;8020:22;7999:53;:::i;:::-;7989:63;;7945:117;8101:2;8127:53;8172:7;8163:6;8152:9;8148:22;8127:53;:::i;:::-;8117:63;;8072:118;7723:474;;;;;:::o;8203:619::-;8280:6;8288;8296;8345:2;8333:9;8324:7;8320:23;8316:32;8313:119;;;8351:79;;:::i;:::-;8313:119;8471:1;8496:53;8541:7;8532:6;8521:9;8517:22;8496:53;:::i;:::-;8486:63;;8442:117;8598:2;8624:53;8669:7;8660:6;8649:9;8645:22;8624:53;:::i;:::-;8614:63;;8569:118;8726:2;8752:53;8797:7;8788:6;8777:9;8773:22;8752:53;:::i;:::-;8742:63;;8697:118;8203:619;;;;;:::o;8828:311::-;8905:4;8995:18;8987:6;8984:30;8981:56;;;9017:18;;:::i;:::-;8981:56;9067:4;9059:6;9055:17;9047:25;;9127:4;9121;9117:15;9109:23;;8828:311;;;:::o;9145:117::-;9254:1;9251;9244:12;9268:77;9305:7;9334:5;9323:16;;9268:77;;;:::o;9351:122::-;9424:24;9442:5;9424:24;:::i;:::-;9417:5;9414:35;9404:63;;9463:1;9460;9453:12;9404:63;9351:122;:::o;9479:139::-;9525:5;9563:6;9550:20;9541:29;;9579:33;9606:5;9579:33;:::i;:::-;9479:139;;;;:::o;9641:710::-;9737:5;9762:81;9778:64;9835:6;9778:64;:::i;:::-;9762:81;:::i;:::-;9753:90;;9863:5;9892:6;9885:5;9878:21;9926:4;9919:5;9915:16;9908:23;;9979:4;9971:6;9967:17;9959:6;9955:30;10008:3;10000:6;9997:15;9994:122;;;10027:79;;:::i;:::-;9994:122;10142:6;10125:220;10159:6;10154:3;10151:15;10125:220;;;10234:3;10263:37;10296:3;10284:10;10263:37;:::i;:::-;10258:3;10251:50;10330:4;10325:3;10321:14;10314:21;;10201:144;10185:4;10180:3;10176:14;10169:21;;10125:220;;;10129:21;9743:608;;9641:710;;;;;:::o;10374:370::-;10445:5;10494:3;10487:4;10479:6;10475:17;10471:27;10461:122;;10502:79;;:::i;:::-;10461:122;10619:6;10606:20;10644:94;10734:3;10726:6;10719:4;10711:6;10707:17;10644:94;:::i;:::-;10635:103;;10451:293;10374:370;;;;:::o;10750:684::-;10843:6;10851;10900:2;10888:9;10879:7;10875:23;10871:32;10868:119;;;10906:79;;:::i;:::-;10868:119;11054:1;11043:9;11039:17;11026:31;11084:18;11076:6;11073:30;11070:117;;;11106:79;;:::i;:::-;11070:117;11211:78;11281:7;11272:6;11261:9;11257:22;11211:78;:::i;:::-;11201:88;;10997:302;11338:2;11364:53;11409:7;11400:6;11389:9;11385:22;11364:53;:::i;:::-;11354:63;;11309:118;10750:684;;;;;:::o;11440:118::-;11527:24;11545:5;11527:24;:::i;:::-;11522:3;11515:37;11440:118;;:::o;11564:222::-;11657:4;11695:2;11684:9;11680:18;11672:26;;11708:71;11776:1;11765:9;11761:17;11752:6;11708:71;:::i;:::-;11564:222;;;;:::o;11792:329::-;11851:6;11900:2;11888:9;11879:7;11875:23;11871:32;11868:119;;;11906:79;;:::i;:::-;11868:119;12026:1;12051:53;12096:7;12087:6;12076:9;12072:22;12051:53;:::i;:::-;12041:63;;11997:117;11792:329;;;;:::o;12127:114::-;12194:6;12228:5;12222:12;12212:22;;12127:114;;;:::o;12247:184::-;12346:11;12380:6;12375:3;12368:19;12420:4;12415:3;12411:14;12396:29;;12247:184;;;;:::o;12437:132::-;12504:4;12527:3;12519:11;;12557:4;12552:3;12548:14;12540:22;;12437:132;;;:::o;12575:108::-;12652:24;12670:5;12652:24;:::i;:::-;12647:3;12640:37;12575:108;;:::o;12689:179::-;12758:10;12779:46;12821:3;12813:6;12779:46;:::i;:::-;12857:4;12852:3;12848:14;12834:28;;12689:179;;;;:::o;12874:113::-;12944:4;12976;12971:3;12967:14;12959:22;;12874:113;;;:::o;13023:732::-;13142:3;13171:54;13219:5;13171:54;:::i;:::-;13241:86;13320:6;13315:3;13241:86;:::i;:::-;13234:93;;13351:56;13401:5;13351:56;:::i;:::-;13430:7;13461:1;13446:284;13471:6;13468:1;13465:13;13446:284;;;13547:6;13541:13;13574:63;13633:3;13618:13;13574:63;:::i;:::-;13567:70;;13660:60;13713:6;13660:60;:::i;:::-;13650:70;;13506:224;13493:1;13490;13486:9;13481:14;;13446:284;;;13450:14;13746:3;13739:10;;13147:608;;;13023:732;;;;:::o;13761:373::-;13904:4;13942:2;13931:9;13927:18;13919:26;;13991:9;13985:4;13981:20;13977:1;13966:9;13962:17;13955:47;14019:108;14122:4;14113:6;14019:108;:::i;:::-;14011:116;;13761:373;;;;:::o;14140:116::-;14210:21;14225:5;14210:21;:::i;:::-;14203:5;14200:32;14190:60;;14246:1;14243;14236:12;14190:60;14140:116;:::o;14262:133::-;14305:5;14343:6;14330:20;14321:29;;14359:30;14383:5;14359:30;:::i;:::-;14262:133;;;;:::o;14401:468::-;14466:6;14474;14523:2;14511:9;14502:7;14498:23;14494:32;14491:119;;;14529:79;;:::i;:::-;14491:119;14649:1;14674:53;14719:7;14710:6;14699:9;14695:22;14674:53;:::i;:::-;14664:63;;14620:117;14776:2;14802:50;14844:7;14835:6;14824:9;14820:22;14802:50;:::i;:::-;14792:60;;14747:115;14401:468;;;;;:::o;14875:307::-;14936:4;15026:18;15018:6;15015:30;15012:56;;;15048:18;;:::i;:::-;15012:56;15086:29;15108:6;15086:29;:::i;:::-;15078:37;;15170:4;15164;15160:15;15152:23;;14875:307;;;:::o;15188:423::-;15265:5;15290:65;15306:48;15347:6;15306:48;:::i;:::-;15290:65;:::i;:::-;15281:74;;15378:6;15371:5;15364:21;15416:4;15409:5;15405:16;15454:3;15445:6;15440:3;15436:16;15433:25;15430:112;;;15461:79;;:::i;:::-;15430:112;15551:54;15598:6;15593:3;15588;15551:54;:::i;:::-;15271:340;15188:423;;;;;:::o;15630:338::-;15685:5;15734:3;15727:4;15719:6;15715:17;15711:27;15701:122;;15742:79;;:::i;:::-;15701:122;15859:6;15846:20;15884:78;15958:3;15950:6;15943:4;15935:6;15931:17;15884:78;:::i;:::-;15875:87;;15691:277;15630:338;;;;:::o;15974:943::-;16069:6;16077;16085;16093;16142:3;16130:9;16121:7;16117:23;16113:33;16110:120;;;16149:79;;:::i;:::-;16110:120;16269:1;16294:53;16339:7;16330:6;16319:9;16315:22;16294:53;:::i;:::-;16284:63;;16240:117;16396:2;16422:53;16467:7;16458:6;16447:9;16443:22;16422:53;:::i;:::-;16412:63;;16367:118;16524:2;16550:53;16595:7;16586:6;16575:9;16571:22;16550:53;:::i;:::-;16540:63;;16495:118;16680:2;16669:9;16665:18;16652:32;16711:18;16703:6;16700:30;16697:117;;;16733:79;;:::i;:::-;16697:117;16838:62;16892:7;16883:6;16872:9;16868:22;16838:62;:::i;:::-;16828:72;;16623:287;15974:943;;;;;;;:::o;16923:474::-;16991:6;16999;17048:2;17036:9;17027:7;17023:23;17019:32;17016:119;;;17054:79;;:::i;:::-;17016:119;17174:1;17199:53;17244:7;17235:6;17224:9;17220:22;17199:53;:::i;:::-;17189:63;;17145:117;17301:2;17327:53;17372:7;17363:6;17352:9;17348:22;17327:53;:::i;:::-;17317:63;;17272:118;16923:474;;;;;:::o;17403:182::-;17543:34;17539:1;17531:6;17527:14;17520:58;17403:182;:::o;17591:366::-;17733:3;17754:67;17818:2;17813:3;17754:67;:::i;:::-;17747:74;;17830:93;17919:3;17830:93;:::i;:::-;17948:2;17943:3;17939:12;17932:19;;17591:366;;;:::o;17963:419::-;18129:4;18167:2;18156:9;18152:18;18144:26;;18216:9;18210:4;18206:20;18202:1;18191:9;18187:17;18180:47;18244:131;18370:4;18244:131;:::i;:::-;18236:139;;17963:419;;;:::o;18388:180::-;18436:77;18433:1;18426:88;18533:4;18530:1;18523:15;18557:4;18554:1;18547:15;18574:320;18618:6;18655:1;18649:4;18645:12;18635:22;;18702:1;18696:4;18692:12;18723:18;18713:81;;18779:4;18771:6;18767:17;18757:27;;18713:81;18841:2;18833:6;18830:14;18810:18;18807:38;18804:84;;18860:18;;:::i;:::-;18804:84;18625:269;18574:320;;;:::o;18900:141::-;18949:4;18972:3;18964:11;;18995:3;18992:1;18985:14;19029:4;19026:1;19016:18;19008:26;;18900:141;;;:::o;19047:93::-;19084:6;19131:2;19126;19119:5;19115:14;19111:23;19101:33;;19047:93;;;:::o;19146:107::-;19190:8;19240:5;19234:4;19230:16;19209:37;;19146:107;;;;:::o;19259:393::-;19328:6;19378:1;19366:10;19362:18;19401:97;19431:66;19420:9;19401:97;:::i;:::-;19519:39;19549:8;19538:9;19519:39;:::i;:::-;19507:51;;19591:4;19587:9;19580:5;19576:21;19567:30;;19640:4;19630:8;19626:19;19619:5;19616:30;19606:40;;19335:317;;19259:393;;;;;:::o;19658:60::-;19686:3;19707:5;19700:12;;19658:60;;;:::o;19724:142::-;19774:9;19807:53;19825:34;19834:24;19852:5;19834:24;:::i;:::-;19825:34;:::i;:::-;19807:53;:::i;:::-;19794:66;;19724:142;;;:::o;19872:75::-;19915:3;19936:5;19929:12;;19872:75;;;:::o;19953:269::-;20063:39;20094:7;20063:39;:::i;:::-;20124:91;20173:41;20197:16;20173:41;:::i;:::-;20165:6;20158:4;20152:11;20124:91;:::i;:::-;20118:4;20111:105;20029:193;19953:269;;;:::o;20228:73::-;20273:3;20228:73;:::o;20307:189::-;20384:32;;:::i;:::-;20425:65;20483:6;20475;20469:4;20425:65;:::i;:::-;20360:136;20307:189;;:::o;20502:186::-;20562:120;20579:3;20572:5;20569:14;20562:120;;;20633:39;20670:1;20663:5;20633:39;:::i;:::-;20606:1;20599:5;20595:13;20586:22;;20562:120;;;20502:186;;:::o;20694:543::-;20795:2;20790:3;20787:11;20784:446;;;20829:38;20861:5;20829:38;:::i;:::-;20913:29;20931:10;20913:29;:::i;:::-;20903:8;20899:44;21096:2;21084:10;21081:18;21078:49;;;21117:8;21102:23;;21078:49;21140:80;21196:22;21214:3;21196:22;:::i;:::-;21186:8;21182:37;21169:11;21140:80;:::i;:::-;20799:431;;20784:446;20694:543;;;:::o;21243:117::-;21297:8;21347:5;21341:4;21337:16;21316:37;;21243:117;;;;:::o;21366:169::-;21410:6;21443:51;21491:1;21487:6;21479:5;21476:1;21472:13;21443:51;:::i;:::-;21439:56;21524:4;21518;21514:15;21504:25;;21417:118;21366:169;;;;:::o;21540:295::-;21616:4;21762:29;21787:3;21781:4;21762:29;:::i;:::-;21754:37;;21824:3;21821:1;21817:11;21811:4;21808:21;21800:29;;21540:295;;;;:::o;21840:1395::-;21957:37;21990:3;21957:37;:::i;:::-;22059:18;22051:6;22048:30;22045:56;;;22081:18;;:::i;:::-;22045:56;22125:38;22157:4;22151:11;22125:38;:::i;:::-;22210:67;22270:6;22262;22256:4;22210:67;:::i;:::-;22304:1;22328:4;22315:17;;22360:2;22352:6;22349:14;22377:1;22372:618;;;;23034:1;23051:6;23048:77;;;23100:9;23095:3;23091:19;23085:26;23076:35;;23048:77;23151:67;23211:6;23204:5;23151:67;:::i;:::-;23145:4;23138:81;23007:222;22342:887;;22372:618;22424:4;22420:9;22412:6;22408:22;22458:37;22490:4;22458:37;:::i;:::-;22517:1;22531:208;22545:7;22542:1;22539:14;22531:208;;;22624:9;22619:3;22615:19;22609:26;22601:6;22594:42;22675:1;22667:6;22663:14;22653:24;;22722:2;22711:9;22707:18;22694:31;;22568:4;22565:1;22561:12;22556:17;;22531:208;;;22767:6;22758:7;22755:19;22752:179;;;22825:9;22820:3;22816:19;22810:26;22868:48;22910:4;22902:6;22898:17;22887:9;22868:48;:::i;:::-;22860:6;22853:64;22775:156;22752:179;22977:1;22973;22965:6;22961:14;22957:22;22951:4;22944:36;22379:611;;;22342:887;;21932:1303;;;21840:1395;;:::o;23241:332::-;23362:4;23400:2;23389:9;23385:18;23377:26;;23413:71;23481:1;23470:9;23466:17;23457:6;23413:71;:::i;:::-;23494:72;23562:2;23551:9;23547:18;23538:6;23494:72;:::i;:::-;23241:332;;;;;:::o;23579:137::-;23633:5;23664:6;23658:13;23649:22;;23680:30;23704:5;23680:30;:::i;:::-;23579:137;;;;:::o;23722:345::-;23789:6;23838:2;23826:9;23817:7;23813:23;23809:32;23806:119;;;23844:79;;:::i;:::-;23806:119;23964:1;23989:61;24042:7;24033:6;24022:9;24018:22;23989:61;:::i;:::-;23979:71;;23935:125;23722:345;;;;:::o;24073:231::-;24213:34;24209:1;24201:6;24197:14;24190:58;24282:14;24277:2;24269:6;24265:15;24258:39;24073:231;:::o;24310:366::-;24452:3;24473:67;24537:2;24532:3;24473:67;:::i;:::-;24466:74;;24549:93;24638:3;24549:93;:::i;:::-;24667:2;24662:3;24658:12;24651:19;;24310:366;;;:::o;24682:419::-;24848:4;24886:2;24875:9;24871:18;24863:26;;24935:9;24929:4;24925:20;24921:1;24910:9;24906:17;24899:47;24963:131;25089:4;24963:131;:::i;:::-;24955:139;;24682:419;;;:::o;25107:220::-;25247:34;25243:1;25235:6;25231:14;25224:58;25316:3;25311:2;25303:6;25299:15;25292:28;25107:220;:::o;25333:366::-;25475:3;25496:67;25560:2;25555:3;25496:67;:::i;:::-;25489:74;;25572:93;25661:3;25572:93;:::i;:::-;25690:2;25685:3;25681:12;25674:19;;25333:366;;;:::o;25705:419::-;25871:4;25909:2;25898:9;25894:18;25886:26;;25958:9;25952:4;25948:20;25944:1;25933:9;25929:17;25922:47;25986:131;26112:4;25986:131;:::i;:::-;25978:139;;25705:419;;;:::o;26130:180::-;26178:77;26175:1;26168:88;26275:4;26272:1;26265:15;26299:4;26296:1;26289:15;26316:191;26356:3;26375:20;26393:1;26375:20;:::i;:::-;26370:25;;26409:20;26427:1;26409:20;:::i;:::-;26404:25;;26452:1;26449;26445:9;26438:16;;26473:3;26470:1;26467:10;26464:36;;;26480:18;;:::i;:::-;26464:36;26316:191;;;;:::o;26513:230::-;26653:34;26649:1;26641:6;26637:14;26630:58;26722:13;26717:2;26709:6;26705:15;26698:38;26513:230;:::o;26749:366::-;26891:3;26912:67;26976:2;26971:3;26912:67;:::i;:::-;26905:74;;26988:93;27077:3;26988:93;:::i;:::-;27106:2;27101:3;27097:12;27090:19;;26749:366;;;:::o;27121:419::-;27287:4;27325:2;27314:9;27310:18;27302:26;;27374:9;27368:4;27364:20;27360:1;27349:9;27345:17;27338:47;27402:131;27528:4;27402:131;:::i;:::-;27394:139;;27121:419;;;:::o;27546:239::-;27686:34;27682:1;27674:6;27670:14;27663:58;27755:22;27750:2;27742:6;27738:15;27731:47;27546:239;:::o;27791:366::-;27933:3;27954:67;28018:2;28013:3;27954:67;:::i;:::-;27947:74;;28030:93;28119:3;28030:93;:::i;:::-;28148:2;28143:3;28139:12;28132:19;;27791:366;;;:::o;28163:419::-;28329:4;28367:2;28356:9;28352:18;28344:26;;28416:9;28410:4;28406:20;28402:1;28391:9;28387:17;28380:47;28444:131;28570:4;28444:131;:::i;:::-;28436:139;;28163:419;;;:::o;28588:410::-;28628:7;28651:20;28669:1;28651:20;:::i;:::-;28646:25;;28685:20;28703:1;28685:20;:::i;:::-;28680:25;;28740:1;28737;28733:9;28762:30;28780:11;28762:30;:::i;:::-;28751:41;;28941:1;28932:7;28928:15;28925:1;28922:22;28902:1;28895:9;28875:83;28852:139;;28971:18;;:::i;:::-;28852:139;28636:362;28588:410;;;;:::o;29004:227::-;29144:34;29140:1;29132:6;29128:14;29121:58;29213:10;29208:2;29200:6;29196:15;29189:35;29004:227;:::o;29237:366::-;29379:3;29400:67;29464:2;29459:3;29400:67;:::i;:::-;29393:74;;29476:93;29565:3;29476:93;:::i;:::-;29594:2;29589:3;29585:12;29578:19;;29237:366;;;:::o;29609:419::-;29775:4;29813:2;29802:9;29798:18;29790:26;;29862:9;29856:4;29852:20;29848:1;29837:9;29833:17;29826:47;29890:131;30016:4;29890:131;:::i;:::-;29882:139;;29609:419;;;:::o;30034:94::-;30067:8;30115:5;30111:2;30107:14;30086:35;;30034:94;;;:::o;30134:::-;30173:7;30202:20;30216:5;30202:20;:::i;:::-;30191:31;;30134:94;;;:::o;30234:100::-;30273:7;30302:26;30322:5;30302:26;:::i;:::-;30291:37;;30234:100;;;:::o;30340:157::-;30445:45;30465:24;30483:5;30465:24;:::i;:::-;30445:45;:::i;:::-;30440:3;30433:58;30340:157;;:::o;30503:256::-;30615:3;30630:75;30701:3;30692:6;30630:75;:::i;:::-;30730:2;30725:3;30721:12;30714:19;;30750:3;30743:10;;30503:256;;;;:::o;30765:224::-;30905:34;30901:1;30893:6;30889:14;30882:58;30974:7;30969:2;30961:6;30957:15;30950:32;30765:224;:::o;30995:366::-;31137:3;31158:67;31222:2;31217:3;31158:67;:::i;:::-;31151:74;;31234:93;31323:3;31234:93;:::i;:::-;31352:2;31347:3;31343:12;31336:19;;30995:366;;;:::o;31367:419::-;31533:4;31571:2;31560:9;31556:18;31548:26;;31620:9;31614:4;31610:20;31606:1;31595:9;31591:17;31584:47;31648:131;31774:4;31648:131;:::i;:::-;31640:139;;31367:419;;;:::o;31792:180::-;31840:77;31837:1;31830:88;31937:4;31934:1;31927:15;31961:4;31958:1;31951:15;31978:179;32118:31;32114:1;32106:6;32102:14;32095:55;31978:179;:::o;32163:366::-;32305:3;32326:67;32390:2;32385:3;32326:67;:::i;:::-;32319:74;;32402:93;32491:3;32402:93;:::i;:::-;32520:2;32515:3;32511:12;32504:19;;32163:366;;;:::o;32535:419::-;32701:4;32739:2;32728:9;32724:18;32716:26;;32788:9;32782:4;32778:20;32774:1;32763:9;32759:17;32752:47;32816:131;32942:4;32816:131;:::i;:::-;32808:139;;32535:419;;;:::o;32960:180::-;33100:32;33096:1;33088:6;33084:14;33077:56;32960:180;:::o;33146:366::-;33288:3;33309:67;33373:2;33368:3;33309:67;:::i;:::-;33302:74;;33385:93;33474:3;33385:93;:::i;:::-;33503:2;33498:3;33494:12;33487:19;;33146:366;;;:::o;33518:419::-;33684:4;33722:2;33711:9;33707:18;33699:26;;33771:9;33765:4;33761:20;33757:1;33746:9;33742:17;33735:47;33799:131;33925:4;33799:131;:::i;:::-;33791:139;;33518:419;;;:::o;33943:225::-;34083:34;34079:1;34071:6;34067:14;34060:58;34152:8;34147:2;34139:6;34135:15;34128:33;33943:225;:::o;34174:366::-;34316:3;34337:67;34401:2;34396:3;34337:67;:::i;:::-;34330:74;;34413:93;34502:3;34413:93;:::i;:::-;34531:2;34526:3;34522:12;34515:19;;34174:366;;;:::o;34546:419::-;34712:4;34750:2;34739:9;34735:18;34727:26;;34799:9;34793:4;34789:20;34785:1;34774:9;34770:17;34763:47;34827:131;34953:4;34827:131;:::i;:::-;34819:139;;34546:419;;;:::o;34971:170::-;35111:22;35107:1;35099:6;35095:14;35088:46;34971:170;:::o;35147:366::-;35289:3;35310:67;35374:2;35369:3;35310:67;:::i;:::-;35303:74;;35386:93;35475:3;35386:93;:::i;:::-;35504:2;35499:3;35495:12;35488:19;;35147:366;;;:::o;35519:419::-;35685:4;35723:2;35712:9;35708:18;35700:26;;35772:9;35766:4;35762:20;35758:1;35747:9;35743:17;35736:47;35800:131;35926:4;35800:131;:::i;:::-;35792:139;;35519:419;;;:::o;35944:220::-;36084:34;36080:1;36072:6;36068:14;36061:58;36153:3;36148:2;36140:6;36136:15;36129:28;35944:220;:::o;36170:366::-;36312:3;36333:67;36397:2;36392:3;36333:67;:::i;:::-;36326:74;;36409:93;36498:3;36409:93;:::i;:::-;36527:2;36522:3;36518:12;36511:19;;36170:366;;;:::o;36542:419::-;36708:4;36746:2;36735:9;36731:18;36723:26;;36795:9;36789:4;36785:20;36781:1;36770:9;36766:17;36759:47;36823:131;36949:4;36823:131;:::i;:::-;36815:139;;36542:419;;;:::o;36967:234::-;37107:34;37103:1;37095:6;37091:14;37084:58;37176:17;37171:2;37163:6;37159:15;37152:42;36967:234;:::o;37207:366::-;37349:3;37370:67;37434:2;37429:3;37370:67;:::i;:::-;37363:74;;37446:93;37535:3;37446:93;:::i;:::-;37564:2;37559:3;37555:12;37548:19;;37207:366;;;:::o;37579:419::-;37745:4;37783:2;37772:9;37768:18;37760:26;;37832:9;37826:4;37822:20;37818:1;37807:9;37803:17;37796:47;37860:131;37986:4;37860:131;:::i;:::-;37852:139;;37579:419;;;:::o;38004:148::-;38106:11;38143:3;38128:18;;38004:148;;;;:::o;38182:874::-;38285:3;38322:5;38316:12;38351:36;38377:9;38351:36;:::i;:::-;38403:89;38485:6;38480:3;38403:89;:::i;:::-;38396:96;;38523:1;38512:9;38508:17;38539:1;38534:166;;;;38714:1;38709:341;;;;38501:549;;38534:166;38618:4;38614:9;38603;38599:25;38594:3;38587:38;38680:6;38673:14;38666:22;38658:6;38654:35;38649:3;38645:45;38638:52;;38534:166;;38709:341;38776:38;38808:5;38776:38;:::i;:::-;38836:1;38850:154;38864:6;38861:1;38858:13;38850:154;;;38938:7;38932:14;38928:1;38923:3;38919:11;38912:35;38988:1;38979:7;38975:15;38964:26;;38886:4;38883:1;38879:12;38874:17;;38850:154;;;39033:6;39028:3;39024:16;39017:23;;38716:334;;38501:549;;38289:767;;38182:874;;;;:::o;39062:390::-;39168:3;39196:39;39229:5;39196:39;:::i;:::-;39251:89;39333:6;39328:3;39251:89;:::i;:::-;39244:96;;39349:65;39407:6;39402:3;39395:4;39388:5;39384:16;39349:65;:::i;:::-;39439:6;39434:3;39430:16;39423:23;;39172:280;39062:390;;;;:::o;39458:155::-;39598:7;39594:1;39586:6;39582:14;39575:31;39458:155;:::o;39619:400::-;39779:3;39800:84;39882:1;39877:3;39800:84;:::i;:::-;39793:91;;39893:93;39982:3;39893:93;:::i;:::-;40011:1;40006:3;40002:11;39995:18;;39619:400;;;:::o;40025:695::-;40303:3;40325:92;40413:3;40404:6;40325:92;:::i;:::-;40318:99;;40434:95;40525:3;40516:6;40434:95;:::i;:::-;40427:102;;40546:148;40690:3;40546:148;:::i;:::-;40539:155;;40711:3;40704:10;;40025:695;;;;;:::o;40726:225::-;40866:34;40862:1;40854:6;40850:14;40843:58;40935:8;40930:2;40922:6;40918:15;40911:33;40726:225;:::o;40957:366::-;41099:3;41120:67;41184:2;41179:3;41120:67;:::i;:::-;41113:74;;41196:93;41285:3;41196:93;:::i;:::-;41314:2;41309:3;41305:12;41298:19;;40957:366;;;:::o;41329:419::-;41495:4;41533:2;41522:9;41518:18;41510:26;;41582:9;41576:4;41572:20;41568:1;41557:9;41553:17;41546:47;41610:131;41736:4;41610:131;:::i;:::-;41602:139;;41329:419;;;:::o;41754:233::-;41793:3;41816:24;41834:5;41816:24;:::i;:::-;41807:33;;41862:66;41855:5;41852:77;41849:103;;41932:18;;:::i;:::-;41849:103;41979:1;41972:5;41968:13;41961:20;;41754:233;;;:::o;41993:180::-;42041:77;42038:1;42031:88;42138:4;42135:1;42128:15;42162:4;42159:1;42152:15;42179:185;42219:1;42236:20;42254:1;42236:20;:::i;:::-;42231:25;;42270:20;42288:1;42270:20;:::i;:::-;42265:25;;42309:1;42299:35;;42314:18;;:::i;:::-;42299:35;42356:1;42353;42349:9;42344:14;;42179:185;;;;:::o;42370:194::-;42410:4;42430:20;42448:1;42430:20;:::i;:::-;42425:25;;42464:20;42482:1;42464:20;:::i;:::-;42459:25;;42508:1;42505;42501:9;42493:17;;42532:1;42526:4;42523:11;42520:37;;;42537:18;;:::i;:::-;42520:37;42370:194;;;;:::o;42570:176::-;42602:1;42619:20;42637:1;42619:20;:::i;:::-;42614:25;;42653:20;42671:1;42653:20;:::i;:::-;42648:25;;42692:1;42682:35;;42697:18;;:::i;:::-;42682:35;42738:1;42735;42731:9;42726:14;;42570:176;;;;:::o;42752:98::-;42803:6;42837:5;42831:12;42821:22;;42752:98;;;:::o;42856:168::-;42939:11;42973:6;42968:3;42961:19;43013:4;43008:3;43004:14;42989:29;;42856:168;;;;:::o;43030:373::-;43116:3;43144:38;43176:5;43144:38;:::i;:::-;43198:70;43261:6;43256:3;43198:70;:::i;:::-;43191:77;;43277:65;43335:6;43330:3;43323:4;43316:5;43312:16;43277:65;:::i;:::-;43367:29;43389:6;43367:29;:::i;:::-;43362:3;43358:39;43351:46;;43120:283;43030:373;;;;:::o;43409:640::-;43604:4;43642:3;43631:9;43627:19;43619:27;;43656:71;43724:1;43713:9;43709:17;43700:6;43656:71;:::i;:::-;43737:72;43805:2;43794:9;43790:18;43781:6;43737:72;:::i;:::-;43819;43887:2;43876:9;43872:18;43863:6;43819:72;:::i;:::-;43938:9;43932:4;43928:20;43923:2;43912:9;43908:18;43901:48;43966:76;44037:4;44028:6;43966:76;:::i;:::-;43958:84;;43409:640;;;;;;;:::o;44055:141::-;44111:5;44142:6;44136:13;44127:22;;44158:32;44184:5;44158:32;:::i;:::-;44055:141;;;;:::o;44202:349::-;44271:6;44320:2;44308:9;44299:7;44295:23;44291:32;44288:119;;;44326:79;;:::i;:::-;44288:119;44446:1;44471:63;44526:7;44517:6;44506:9;44502:22;44471:63;:::i;:::-;44461:73;;44417:127;44202:349;;;;:::o",
  "linkReferences": {},
  "deployedLinkReferences": {}
}